:100000000C9496010C94B0130C9489130C94621305
:100010000C943B130C94BE010C94BE010C9414136D
:100020000C94BE010C94BE010C94D7130C9449148B
:100030000C94BE010C94BE010C94BE010C94BE0144
:100040000C94BE010C94BE010C94BE010C94BE0134
:100050000C94BE010C94BE010C94BE010C94CA1207
:100060000C94BE010C94BE010C94BE010C94BE0114
:100070000C94BE010C94BE010C94BE010C94BE0104
:100080000C94BE010C94BE010C94BE010C94BE01F4
:100090000C94BE010C94BE010C94BE010C94BE01E4
:1000A0000C94BE010C94BE010C94BE014D17501768
:1000B0003F174317471771177117711754175817C0
:1000C0005C176217661771176C17E917EE17F317AD
:1000D000FD17071851185118511811181B18251819
:1000E0002F183C18511844187374645F6D7367734C
:1000F0002F54696D65006364373136366337346376
:10010000353532633331316662636332666535613A
:1001100037626332383900726F7373657269616C6C
:100120005F6D7367732F546F706963496E666F00FC
:100130003061643531663838666334343839326654
:10014000386331303638343037373634363030353E
:1001500000726F7373657269616C5F6D7367732F83
:100160004C6F670031316162643733316332353946
:10017000333332363163643631383362643132645A
:100180003632393500726F7373657269616C5F6DF9
:100190007367732F52657175657374506172616D09
:1001A000003966306539386264613635393831393D
:1001B000383664646635336166613761343065347E
:1001C000390067656F6D657472795F6D7367732F42
:1001D000566563746F723300346138343262363579
:1001E00066343133303834646332623130666234BD
:1001F000383465613766313700000000002300267F
:100200000029002C002F0067656F6D657472795F9F
:100210006D7367732F54776973740039663139359C
:10022000663838313234366664666132373938645C
:10023000316433656562636138346100080B000224
:10024000020201000904000001020200000524006E
:100250001001052401010104240206052406000101
:100260000705810310004009040100020A00000094
:100270000705020240000007058302400000040356
:10028000090412010002EF020140412336800001FF
:100290000102030141726475696E6F204C4C43008A
:1002A00041726475696E6F204C656F6E6172646F28
:1002B0000000000000240027002A002D003000006C
:1002C000000000250028002B002E0031000404044B
:1002D00004040304050202020204030202020206ED
:1002E00006060606060404020202040404080201CB
:1002F000104080401020408040800802040180406F
:100300002010020110801020404020000000020058
:10031000090F0000030401000C00000000000000B1
:1003200000000000000000000000321F11241FBE6A
:10033000CFEFDAE0DEBFCDBF12E0A0E0B1E0E0EA4F
:10034000FAE402C005900D92A034B107D9F728E075
:10035000A0E4B2E001C01D92A93CB207E1F711E0B0
:10036000C6E9D1E004C02197FE010E94EE22C53902
:10037000D107C9F70E94641A0C944E250C94000012
:10038000CF93DF93EEE4F2E0DC0114964D915D91A2
:100390006D917C9117974483558366837783189674
:1003A0008D919D910D90BC91A02D80839183A2830E
:1003B000B383DF91CF91089588ED91E0089582ECA9
:1003C00091E00895CB010895442341F021E030E00D
:1003D000FC01338322838CE191E00895CB010895E1
:1003E00081EA91E0089585E891E0089584E691E03E
:1003F000089581E591E0089580E391E0089587E113
:1004000091E0089586EF90E0089588EE90E00895D9
:10041000FC01DB014C9150E060E070E042835383CB
:100420006483758311968C911197582B4283538363
:100430006483758312968C911297682B4283538341
:100440006483758313968C911397782B428353831F
:100450006483758314964C91149750E060E070E0CB
:10046000468357836087718715968C911597582B13
:10047000468357836087718716968C911697682BF1
:10048000468357836087718717968C91782B4683B4
:1004900057836087718788E090E00895DC01FB0155
:1004A00012968C911297808313968C911397818367
:1004B00014968C911497828315968C91159783834B
:1004C00016968C911697848317968C91179785832F
:1004D00018968C911897868319968C91878388E05B
:1004E00090E008958F929F92AF92BF92CF92DF9249
:1004F000EF92FF920F931F93FC01DB01C380C29424
:10050000C69427E0C2228C2C912CA12CB12C8D9268
:100510009D92AD92BC921397048110E020E030E0F0
:1005200043E0000F111F221F331F4A95D1F76801C6
:100530007901C828D928EA28FB28CD92DD92ED92CE
:10054000FC921397458150E060E070E01BE0440F9F
:10055000551F661F771F1A95D1F78A019B010C2939
:100560001D292E293F290D931D932D933C931397FD
:1005700046814F7050E060E070E083E1440F551F0A
:10058000661F771F8A95D1F7402B512B622B732B57
:100590004D935D936D937C931397868182958F70B5
:1005A00007810F7710E020E030E094E0000F111F8A
:1005B000221F331F9A95D1F7082B0115110521052C
:1005C0003105A1F0005813402109310997E1000FCE
:1005D000111F221F331F9A95D1F7042B152B262BA1
:1005E000372B0D931D932D933C93139747814078A0
:1005F00050E060E070E0742F6627552744270D9186
:100600001D912D913C911397402B512B622B732BF5
:100610004D935D936D937C93139788E090E01F91C9
:100620000F91FF90EF90DF90CF90BF90AF909F9091
:100630008F900895EF92FF920F931F93CF93DF93C4
:100640008C017B01BC016E5F7F4FC7010E9472026B
:10065000EC01B8016A5F7F4FC7018C0F9D1F0E949C
:100660007202C80FD91FB801665F7F4FC7018C0F98
:100670009D1F0E9472028C0F9D1FDF91CF911F91D1
:100680000F91FF90EF900895EF92FF920F931F93B9
:10069000CF93DF937C01EB0102960E941A038C0139
:1006A000BE01680F791FC70140960E941A03800F90
:1006B000911FDF91CF911F910F91FF90EF900895BF
:1006C0008F929F92AF92BF92CF92DF92EF92FF9262
:1006D000CF93DF93EC014A015B01DB01CA0157E1D3
:1006E000B595A795979587955A95D1F79927AA27F4
:1006F000BB270097A105B10521F080589C4FAF4F53
:10070000BF4F188219821A82B501A40125E0440F57
:10071000551F661F771F2A95D1F74B83B501A4019A
:1007200033E075956795579547953A95D1F74C8382
:10073000B501A401EBE07595679557954795EA9546
:10074000D1F74D83B501A401F3E1759567955795F0
:100750004795FA95D1F7242F2F70AC01BD0134E0F5
:10076000440F551F661F771F3A95D1F7422B4E83D2
:100770006C017D0144E0F594E794D794C7944A95C1
:10078000D1F720E030E0A901C501B4010E94D720D3
:1007900087FD02C0CF8203C08C2D80688F8388E0E4
:1007A00090E0DF91CF91FF90EF90DF90CF90BF90DE
:1007B000AF909F908F900895EF92FF920F931F93A9
:1007C000CF93DF937C018B01FC01428153816481D3
:1007D0007581C8010E946003EC01F70146815781D1
:1007E00060857185C8018C0F9D1F0E946003C80F32
:1007F000D91FF7014285538564857585C8018C0F23
:100800009D1F0E9460038C0F9D1FDF91CF911F9150
:100810000F91FF90EF900895EF92FF920F931F9327
:10082000CF93DF937C01EB0102960E94DC038C01E5
:10083000BE01680F791FC70140960E94DC03800F3C
:10084000911FDF91CF911F910F91FF90EF9008952D
:10085000CF92DF92EF92FF920F931F93CF93DF938C
:10086000EC01CC84DD84EE84FF84088519852A851B
:100870003B854C815D816E817F8183EC92E00E949B
:10088000B811CC84DD84EE84FF84088519852A851F
:100890003B854C815D816E817F818BE792E00E9478
:1008A000B811DF91CF911F910F91FF90EF90DF90E2
:1008B000CF9008950C94BA234F925F926F927F92DB
:1008C0008F929F92AF92BF92EF92FF920F931F93DE
:1008D000CF93DF9300D000D0CDB7DEB77C018B0182
:1008E000FB018191BF01F7018283CE0101960E9435
:1008F0007C1289819A81AB81BC814C015D01F5E05C
:100900008F0E911CA11CB11CA8014C5F5F4FFA0116
:1009100025E030E02901612C712C481459046A0447
:100920007B0428F4618161932F5F3F4FF3CFF8017F
:10093000E80FF91F1482F7015483438305960F9043
:100940000F900F900F90DF91CF911F910F91FF901B
:10095000EF90BF90AF909F908F907F906F905F903F
:100960004F9008954F925F926F927F928F929F92D5
:10097000AF92BF92CF92DF92EF92FF920F931F93AD
:10098000CF93DF93CDB7DEB72C970FB6F894DEBFC9
:100990000FBECDBF7C018B01DB018C9190E0F70194
:1009A0009383828311962C91922B938382836E5F23
:1009B0007F4FCE0101960E947C1289809A80AB8085
:1009C000BC8024013501F6E04F0E511C611C711CE6
:1009D00098012B5F3F4FF90186E090E0AC0160E0A9
:1009E00070E0441555056605770520F44181419373
:1009F0000196F4CFF801E80DF91D1582D70115967F
:100A00003C932E931497B4016A5F7F4F600F711F60
:100A1000CE0105960E947C12BAE08B0E911C4D808F
:100A20005E806F807884A401092C000C660B770B24
:100A3000440D551D661D771DD801A80DB91DCD01AA
:100A4000801B910B5C01C12CD12CA416B506C606E7
:100A5000D70628F48D91FD0132978083F0CF5401A1
:100A6000A40CB51CB8016A0D7B1DFB0131971082E7
:100A7000C4010197800F911FF70197838683CE01F0
:100A800009960E947C1295012C5F3F4F89859A85BB
:100A9000AB85BC852901032E000C66087708480E3B
:100AA000591E6A1E7B1EF5013396E00FF11FA90146
:100AB0004A01A12CB12C84149504A604B70428F48F
:100AC000618161934F5F5F4FF3CF820F931FF801F6
:100AD000E80FF91FDF0111971C9221503109020F15
:100AE000131FD70119961C930E93189721814281E9
:100AF00050E060E070E0BA0155274427522B208176
:100B0000422B2381722BF7014287538764877587B5
:100B100004962C960FB6F894DEBF0FBECDBFDF91C2
:100B2000CF911F910F91FF90EF90DF90CF90BF90EA
:100B3000AF909F908F907F906F905F904F900895AF
:100B40002F923F924F925F926F927F928F929F92DD
:100B5000AF92BF92CF92DF92EF92FF920F931F93CB
:100B6000CF93DF93CDB7DEB760970FB6F894DEBFB3
:100B70000FBECDBF8C016B01DB018D909D90AD90C0
:100B8000BC90FC0182819381A481B581881599056F
:100B9000AA05BB0570F4B401660F771F660F771FB7
:100BA000828593850E944324D8011B969C938E9343
:100BB0001A97F80182829382A482B5829601812CD1
:100BC000912C540144E050E0B8016A5F7F4F2C5FE4
:100BD0003F4FF80182819381A481B581FA01349657
:100BE0001F0188169906AA06BB0650F5D901119671
:100BF000FC90119712968C9190E0A0E0B0E0DC019F
:100C0000992788279F29F901F0808F29F380BF2930
:100C1000F80186839783A087B187DA01A101149731
:100C200082859385A80FB91F84E0FB0101900D9286
:100C30008A95E1F7FFEF8F1A9F0AAF0ABF0AC7CF65
:100C40004601840E951ED4018C9111969C911197AA
:100C500012964C901297512C612C712C3201552414
:100C60004424592A482A13968C91782A5F01F80166
:100C700084859585A685B78584159505A605B70550
:100C800070F4B201660F771F660F771F848995890C
:100C90000E944324D80155969C938E935497F80153
:100CA0004486558666867786C401412C512C3201D4
:100CB0009801205F3F4FD8011C964D915D916D9139
:100CC0007C911F97F5013496441655066606770603
:100CD00098F5DC011596FC90159716964C91169791
:100CE00050E060E070E0BA01552744275F29149670
:100CF000FC9014974F291796FC907F29D8015096A5
:100D00004D935D936D937C9353975F01AC014819AC
:100D1000590954960D90BC91A02DA40FB51F44E025
:100D2000F90101900D924A95E1F7BFEF4B1A5B0A6A
:100D30006B0A7B0A0496BFCFD601AA0DBB1D8C910E
:100D400011969C91119712968C901297912CA12C30
:100D5000B12C540199248824992A882A13968C91BD
:100D6000B82A7F01F80186899789A08DB18D8815F1
:100D70009905AA05BB0560F4B401660F771F848D41
:100D8000958D0E944324D8015D969C938E935C9729
:100D9000F801868A978AA08EB18E212C312C812C65
:100DA000912C54019801265E3F4F3A872987F8011C
:100DB00086899789A08DB18D88169906AA06BB06EB
:100DC00008F05FC0B6016E0D7F1DCE0101960E9436
:100DD0007C1297012C5F3F4F388B2F8749815A81B6
:100DE0006B817C81C901330FAA0BBB0B2C013D0128
:100DF000440E551E661E771E4B865C866D867E866B
:100E000023E0E20EF11CF601EE0DFF1D2F8538895F
:100E1000C901A0E0B0E04B845C846D847E848415BD
:100E20009505A605B70528F4A181A1932F5F3F4F33
:100E3000EFCF6F847888460D571DF601E40FF51F3C
:100E400031971082C30101978C0D9D1DD8015B96CF
:100E50009C938E935A977A015C96ED91FC915D97E5
:100E6000E20DF31DA985BA858D919C9191838083B4
:100E7000BFEF8B1A9B0AAB0ABB0AE2E02E0E311CB5
:100E800096CFC70160960FB6F894DEBF0FBECDBFF8
:100E9000DF91CF911F910F91FF90EF90DF90CF9056
:100EA000BF90AF909F908F907F906F905F904F908A
:100EB0003F902F9008954F925F926F927F92AF92E2
:100EC000BF92CF92DF92EF92FF920F931F93CF9337
:100ED000DF93EC018B018A81FB0180838B8181830D
:100EE0008C8182838D818383DB0140E050E0BA01F5
:100EF000E4E0F0E01496CA80DB80EC80FD80CF0156
:100F000004964C155D056E057F05C8F42A853B8562
:100F1000E20FF31F3497D080F18032812381DC927D
:100F20001196FC92119712963C93129713962C935C
:100F30001397FC014F5F5F4F6F4F7F4FDBCF5F0118
:100F4000A00EB11E2C85F50120832D8521832E85D1
:100F500022832F852383D50140E050E0BA01CC8461
:100F6000DD84EE84FF849C012C5F3F4F4C155D05B2
:100F70006E057F05F8F4CD018A199B09EC88FD8880
:100F80008E0D9F1DFC01D080E180F280838114963C
:100F9000DC9214971596EC9215971696FC9216977C
:100FA00017968C931797C9014F5F5F4F6F4F7F4F15
:100FB0001496D5CFF801E80FF91F8E8980838F89A9
:100FC0008183888D8283898D83837901A12CB12CC3
:100FD000412C512C32018E899F89A88DB98D4816DC
:100FE00059066A067B0680F5EC8DFD8DEA0DFB1D2A
:100FF000A081B181FD0101900020E9F731976F01D7
:10100000CA1ADB0AA60160E070E0C8018E0D9F1DC0
:101010000E94AA12F4E0EF0EF11CEC8DFD8DEA0D9A
:10102000FB1D60817181A601C8018E0D9F1D0E946C
:101030000E25EC0CFD1C8FEF481A580A680A780A36
:10104000E2E0AE0EB11CC7CFC701DF91CF911F9177
:101050000F91FF90EF90DF90CF90BF90AF907F9077
:101060006F905F904F900895EF92FF920F931F93B0
:10107000CF93DF938C017B01DC0112962C911297A8
:10108000FB012193CF011396ED91FC911497EF0191
:1010900009900020E9F72197CE1BDF0BAE0160E03D
:1010A00070E00E94AA12D80113966D917C9114975A
:1010B000AE01C70105960E940E25CE010596DF916F
:1010C000CF911F910F91FF90EF900895CF92DF92F3
:1010D000EF92FF920F931F93CF93DF937C018B01CD
:1010E000DC0112968C911297FB01808313968C91F0
:1010F000139781831496ED91FC911597EF01099058
:101100000020E9F72197CE1BDF0BAE0160E070E015
:10111000C80102960E94AA12D70114966D917C9183
:101120001597AE01C80106960E940E25CE010696BF
:10113000F701A681B781FD0101900020E9F7319701
:101140006F01CA1ADB0AA60160E070E0800F911FF0
:101150000E94AA122A96D70116966D917C91179734
:10116000A601C8018C0F9D1F0E940E25CC0DDD1D10
:10117000D7011896ED91FC911997DF010D90002091
:10118000E9F711976D01CE1ADF0AA60160E070E061
:10119000C8018C0F9D1F0E94AA122496F70160853A
:1011A0007185A601C8018C0F9D1F0E940E25C601E6
:1011B0008C0F9D1FD7011A966C911A971B964C9114
:1011C0001B971C963C911C971D962C91F801E80FDB
:1011D000F91F60834183328323830496DF91CF918B
:1011E0001F910F91FF90EF90DF90CF900895DC0159
:1011F000ED91FD918081ED91FD919081ED91FD91B9
:101200006C9163708E2309F064609F2309F068601D
:10121000E4E1F9E0E60FF11D659565956D936D913B
:101220007D918D919D91099423C01AC012C016C062
:1012300010C01EC009C014C013C006C019C009C028
:101240000DC007C00DC014C0625070408040904077
:101250000BC0615070408040904006C06E5F01C07E
:101260006F5F7F4F8F4F9F4F9E938E937E936E93B2
:10127000089580914602909147020C94F70880915E
:101280004402909145020C94F7088091420290919B
:1012900043020C94F70880914002909141020C9413
:1012A000F708FC01848195810C94BA23CF93DF93D6
:1012B000EC010E945109CE01DF91CF910C94BA2329
:1012C000CF93DF93DC0116968D919C911797FB01CC
:1012D00016962D913C91179725393105ECF44491E0
:1012E00014966D917C911597EB01C20FD31F488323
:1012F00016962D913C91179731961496CD91DC91CD
:101300001597C20FD31F48812F5F3F4F17963C930D
:101310002E9316974111DCCF16962D913C9117977D
:101320002539310534F022E030E019963C932E93B4
:10133000189714962D913C911597820F931FDF916A
:10134000CF9108950C94600941110C946009CB0170
:101350000895089540914A0250914B02209148020D
:101360003091490242175307B4F49091E800957008
:10137000E1F39091E80092FD19C08093F100809113
:101380004A0290914B0201968F739927892B19F489
:101390008EEF8093E80080914A0290914B02019673
:1013A00090934B0280934A0281E0089580E0089573
:1013B000CF92DF92EF92FF920F931F93CF93DF9321
:1013C0006C017A018B01C0E0D0E0CE15DF0581F021
:1013D000D8016D918D01D601ED91FC910190F081C4
:1013E000E02DC6010995892B11F02196EECF7E01E3
:1013F000C701DF91CF911F910F91FF90EF90DF9088
:10140000CF900895CF93DF931F92CDB7DEB7698356
:10141000DC01ED91FC910280F381E02D41E050E090
:10142000BE016F5F7F4F09950F90DF91CF910895B7
:1014300083E08093E9008091F200882319F08AE329
:101440008093E8000895FC018485958597FD0BC085
:101450009FB7F89482E08093E9008091F2009FBFEB
:1014600090E0019608959FB7F89482E08093E90098
:101470008091F2009FBF90E00895089580E090E091
:1014800008958E579B4FFC01808108958BE192E077
:10149000089587E092E00895FC0187A190A5089542
:1014A0008F929F92AF92BF92CF92DF92EF92FF9274
:1014B0000F931F93CF93DF936C017B018A0180917F
:1014C0000B01882309F45CC080916E02882309F423
:1014D00057C080914D0280FF05C08091E00082607E
:1014E0008093E000E801B12C8AEFA82E93E0892ECA
:1014F0002AE3922E209711F4BB20D9F10E94FD1609
:1015000081110AC0AA94AA20D9F161E070E080E0BC
:1015100090E00E945A18EECF282F30E0C217D30770
:101520000CF48C2F9FB7F8948092E9002091E8008A
:1015300025FF1DC0282F30E0C21BD30BF7018150BF
:1015400020F041914093F100FACFE20EF31EBB2050
:1015500019F09092E8000AC08091E80085FD07C06C
:101560009092E800BB24B394209709F0B12C9FBF60
:10157000C1CF5D9884E680934C021016110644F0AA
:1015800081E090E0F6019383828380E090E001C0E7
:10159000C801DF91CF911F910F91FF90EF90DF90E5
:1015A000CF90BF90AF909F908F9008950E94FD16AE
:1015B00090E008950F931F93CF93DF931F92CDB7C1
:1015C000DEB78C01FC018485958597FF0EC0CE01A6
:1015D00001960E94CF16019719F4898190E002C00C
:1015E0008FEF9FEFF80195878487F80184859585B3
:1015F0000F90DF91CF911F910F910895CF93DF93BB
:101600001F92CDB7DEB7FC018485958597FD05C097
:101610002FEF3FEF358724870BC0CE0101960E9444
:10162000CF16019719F4898190E002C08FEF9FEFE8
:101630000F90DF91CF9108950F931F93CF93DF9376
:101640008C01EC012796CE010E944403D8019596A7
:10165000ED91FC919697CE01DF91CF911F910F9163
:101660000994AF92BF92CF92DF92EF92FF920F93C5
:101670001F93CF93DF93643671053CF0FC01EE5766
:10168000FB4F2081222309F462C0DA016B01EC01D7
:10169000BC01655E7D4FED91FC910190F081E02DE4
:1016A000CA0109958C017E012CEEE21A2DEFF20A97
:1016B0002FEFD7012C93FE01EB5EFD4F2EEF208321
:1016C00031968083319690833196980F90959083D0
:1016D0003196C0821696DC9245E050E020E030E082
:1016E000C80107964817590730F46191260F311D3C
:1016F0004F5F5F4FF7CF085F1F4F8C0F9D1FFC019F
:10170000EC5EFD4F209520830130B2E01B07A8F46A
:1017100068015701C5018E199F0980179107CCF404
:101720008A819B81F50161915F01DC01ED91FC9162
:101730000190F081E02D0995EDCF69EB71E0CE01CC
:101740000E94AC16CC24CA94DD24DA9402C0C12CC9
:10175000D12CC601DF91CF911F910F91FF90EF9097
:10176000DF90CF90BF90AF9008952F923F924F920D
:101770005F926F927F928F929F92AF92BF92CF9221
:10178000DF92EF92FF920F931F93CF93DF93CDB72A
:10179000DEB7E0970FB6F894DEBF0FBECDBF8C0169
:1017A0000E9494182B013C01980129573B4F3E8F12
:1017B0002D8FF90180819181A281B381A3019201D2
:1017C000281B390B4A0B5B0BDA01C901893F9A428E
:1017D000A105B10510F035971082480148E8841A38
:1017E0004BEF940AD4018D919C91892B79F0F801EB
:1017F000E557FB4F80819181A281B38184159505C6
:10180000A605B70518F4F40111821082980120583A
:101810003B4F3A8F298FA80144585B4F5C8F4B8F09
:10182000180154E1250E311CC8018E579B4F9AA315
:1018300089A3D801A057BB4FB8A7AFA3F801E157C0
:10184000FB4FFAA7E9A75801F6E8AF1AFBEFBF0A6A
:101850002250310938A32F8FA80145575B4F5CA751
:101860004BA7D301C2014496A11DB11D8DA79EA710
:10187000AFA7B8ABD80112968D919C911397DC015C
:10188000ED91FC910284F385E02D09959C0197FD73
:10189000EBC2E98DFA8D80819181820F931F918334
:1018A0008083D4014D915C9147305105C9F4EF8D8F
:1018B000F8A180819181AC014F5F5F4F51834083DC
:1018C000F801E80FF91F248BD5018D919C91119798
:1018D00001978D939C93892B69F688E090E033C043
:1018E0004115510541F52F3F310589F481E090E024
:1018F000D4018D939C932DA53EA54FA558A9ABA5CA
:10190000BCA52D933D934D935C931397B3CF0E9449
:101910009418DC01CB0184199509A609B70906972B
:10192000A105B10508F4A6CFF801EE57FB4F1082D0
:101930008EEF9FEFC1C241305105A9F42E3F310512
:1019400031F482E090E0F4019183808393CFD4015D
:101950001D921C92E9A1FAA1808181118BCFC8014F
:101960000E945A1987CF4230510589F4D5012D9331
:101970003C93EF8DF8A11182108283E090E0D401B6
:101980008D939C93E98DFA8D3183208373CF4330FF
:10199000510569F4322F2227D5018D919C91119721
:1019A000280F391F2D933C9384E090E0CCCF443036
:1019B000510589F460E071E00E94B8228F3F9105E3
:1019C00031F485E090E0D4018D939C9353CFF401E2
:1019D000118210824FCF4530510571F4AB8DBC8D13
:1019E0002D933C9386E090E0F40191838083A98D50
:1019F000BA8D2D933C933ECF4630510599F4322F4A
:101A00002227EB8DFC8D80819181280F391F318336
:101A1000208387E090E0D4018D939C93F501808131
:101A2000918159CF4830510509F024CFD4011D923E
:101A30001C9260E071E00E94B8228F3F910509F08E
:101A400019CFEB8DFC8D80819181009709F03EC10B
:101A5000C8010E945A1982E591E09A8389831C8209
:101A60001B8281EF91E09E838D8398878F839A8775
:101A700089871B861C861D861E866801FCEECF1A90
:101A8000FBEFDF0A78012AEBE21A2BEFF20A2AE3D6
:101A9000222E21E0322ED601AD90BC90A114B104CB
:101AA00009F474C01A8A198A388A2F861E8A1D8AF8
:101AB00086E990E00E9422239C8B8B8BFC01108294
:101AC000EB56FF4F1082D50115968D919C9116977C
:101AD0009C838B836D917C91119712964C91CE01D2
:101AE0000F960E94A4099E838D83D601ED91FC91EF
:101AF00083819481DC01ED91FC910480F581E02DDE
:101B00000995BC01CE010F960E94600998878F83CA
:101B1000D601ED91FC9183819481DC01ED91FC91E2
:101B20000680F781E02D0995BC01CE010F960E9439
:101B300060099A87898720E032E040E050E02B87F7
:101B40003C874D875E87D601ED91FC91618572855A
:101B5000D801ED91FC910190F081E02DAE014F5F35
:101B60005F4FC801099589899A898130910519F4D7
:101B700062EF71E004C0029729F466E072E0C801E8
:101B80000E94AC16CE010F960E945109B2E0CB0E16
:101B9000D11CEC14FD0409F07ECF9AE3A92E91E04C
:101BA000B92EF701C080D180C114D10409F473C0EB
:101BB0001A8A198AB88AAF861E8A1D8A86E990E039
:101BC0000E9422239C8B8B8BDC011C92FC01EB5628
:101BD000FF4F1082F601828193819C838B83648105
:101BE00075814681CE010F960E94A4099E838D8344
:101BF000D7018D919C91DC01ED91FC910480F581E0
:101C0000E02D0995BC01CE010F960E9460099887CE
:101C10008F83F70180819181DC01ED91FC91068039
:101C2000F781E02D0995BC01CE010F960E94600955
:101C30009A87898720E032E040E050E02B873C879C
:101C40004D875E87D801ED91FC91C080D180F7016E
:101C500080819181DC01ED91FC910280F381E02D86
:101C60000995AE014F5F5F4FBC01C801F6010995B0
:101C700089899A898130910519F462EF71E004C075
:101C8000029729F466E072E0C8010E94AC16CE010A
:101C90000F960E945109F2E0EF0EF11C8E149F0482
:101CA00009F07FCFF801EE57FB4F81E0808331963A
:101CB0004082518262827382AD8DBE8D4D925D9263
:101CC0006D927C9213978FEF9FEFF6C08A3091054B
:101CD00009F0A1C081E791E09A8389831B821C826D
:101CE0001D821E821F82188619861A860E949418E9
:101CF000F801C084D184E284F3849B01AC012C19E7
:101D00003D094E095F0969017A01B101CE010196D1
:101D10000E940802C701B60128EE33E040E050E01F
:101D20000E94CC22CB80DC80ED80FE80C20ED31ED0
:101D3000E41EF51ECB82DC82ED82FE829B01AC01AB
:101D400060E472E48FE090E00E94A822CF80D88403
:101D5000E984FA84DC01CB018C0D9D1DAE1DBF1DF5
:101D60008F839887A987BA870E949418CF80D884D8
:101D7000E984FA8436E3D31A35E6E30A34ECF30A4D
:101D800028EE33E040E050E00E94CC222BA33CA39D
:101D90004DA35EA39B01AC0160E472E48FE090E090
:101DA0000E94A822A7019601261B370B480B590B4E
:101DB000CA01B901CB80DC80ED80FE8031E0C31A1E
:101DC000D108E108F1082BA13CA14DA15EA1C21AE6
:101DD000D30AE40AF50A20E03AEC4AE95BE30E9400
:101DE000CC22C20ED31EE41EF51ED8011C96CD9245
:101DF000DD92ED92FC921F97F801608B718B828BC4
:101E0000938B0E949418AD8DBE8D6D937D938D93B1
:101E10009C9313972FCD8630910551F4B1018FA17A
:101E200098A50E94A00581E0E9A5FAA5808322CDAE
:101E30008B30910521F4A9A1BAA11C921BCDFC0104
:101E4000E154FE4FEE0FFF1FE00FF11F80819181E3
:101E5000009709F40FCDDC01ED91FC910190F08128
:101E6000E02DB101099506CDF801EE57FB4F8081B9
:101E7000882301F17801BDE7EB1ABBEFFB0AF701FC
:101E800080819181A281B381A3019201281B390B2A
:101E90004A0B5B0BDA01C901853C9940A105B105EC
:101EA00048F0C8010E945A19D7014D925D926D9277
:101EB0007C92139780E090E0E0960FB6F894DEBF36
:101EC0000FBECDBFDF91CF911F910F91FF90EF908B
:101ED000DF90CF90BF90AF909F908F907F906F904A
:101EE0005F904F903F902F900895DF92EF92FF9276
:101EF0000F931F93CF93DF93D82EF92EE42E062F46
:101F000010E0C8010196880F0E94AA0983E00E9490
:101F1000AA09CD2DDF2D0C0F1D1FC017D10789F089
:101F2000E7FE03C0FE01849101C088810E94AA09D6
:101F3000F82E80E00E94AA098F2121968111EDCF11
:101F400001C081E0DF91CF911F910F91FF90EF9041
:101F5000DF900895DF92EF92FF920F931F93CF933C
:101F6000DF93D82E8A017B01E40EF51EEB01CE151E
:101F7000DF0571F0D7FE03C0FE01849101C08881A6
:101F80000E94AA0921968111F2CF8FEF9FEF01C025
:101F9000C801DF91CF911F910F91FF90EF90DF90DB
:101FA00008950F931F93CF93DF931F92CDB7DEB7A2
:101FB00082E0898342E450E06CE372E080E80E94B2
:101FC000AA0F0E940E17DC0112960D911C91139717
:101FD0000115110589F0D801ED91FC910280F38182
:101FE000E02DBE016F5F7F4FC801099597FD04C0CA
:101FF000F80100851185ECCF89810F90DF91CF9199
:102000001F910F910895615030F02091F100FC0173
:1020100020830196F8CF289884E680936D02089576
:102020002F923F924F925F926F927F928F929F92E8
:10203000AF92BF92CF92DF92EF92FF920F931F93D6
:10204000CF93DF93CDB7DEB72F970FB6F894DEBFEF
:102050000FBECDBF9F878E870E9494186D837E83AD
:102060008F839887EE85FF8582A193A1A4A1B5A156
:102070004D815E816F817885481B590B6A0B7B0B04
:1020800086A597A5A0A9B1A9481759076A077B0794
:1020900008F40EC1048CF58DE02D80819181A28120
:1020A000B38189839A83AB83BC83AE85BF859096C9
:1020B000ED91FC91919729813A814B815C816081FE
:1020C0007181828193810E946A204B015C01EE85BF
:1020D000FF8522A533A544A555A569817A818B8109
:1020E0009C810E946A206B017C01AE85BF85509661
:1020F0002D913D914D915C915397C501B4010E9482
:102100003B22EE85FF8526A137A140A551A50E945F
:102110006B202B013C01AE85BF8596966D937D9318
:102120008D939C939997DB96BC91B987B11118C098
:10213000EE85FF852485358546855785C701B6011F
:102140000E943B229B01AC01C301B2010E946A20A4
:10215000AE85BF8596966D937D938D939C9399974D
:10216000EE85FF8546A057A060A471A416A907A913
:1021700030AC21AC212F302F432D522DC301B201A1
:102180000E94362218162CF4812F902FA32DB22DE9
:1021900018C0AE85BF85D2968D919D910D90BC9152
:1021A000A02D8A879B87AC87BD879C01AD01C301A9
:1021B000B2010E94D72087FF0AC08A859B85AC8523
:1021C000BD85EE85FF8586A397A3A0A7B1A7F98556
:1021D000FF2379F0AE85BF851C962D913D914D91E1
:1021E0005C911F97C501B4010E943B224B015C0129
:1021F00003C0812C912C5401EE85FF8524893589FB
:1022000046895789C701B6010E943B229B01AC0158
:10221000AE85BF8596966D917D918D919C91999794
:102220000E946A20A50194010E946B206B017C0131
:102230009B01AC01612F702F832D922D0E94D7201E
:1022400087FD14C0EE85FF8512A903A934A825A82F
:10225000212F302F432D522DB601C7010E94D720C8
:1022600087FD04C01C2D0D2D3E2C2F2CAE85BF8567
:102270005E96ED91FC915F97812F902FA32DB22D4B
:1022800080839183A283B38389819A81AB81BC814E
:10229000EE85FF8582A793A7A4A7B5A78D819E8110
:1022A000AF81B88582A393A3A4A3B5A381E001C0A5
:1022B00080E02F960FB6F894DEBF0FBECDBFDF9142
:1022C000CF911F910F91FF90EF90DF90CF90BF9033
:1022D000AF909F908F907F906F905F904F903F90C6
:1022E0002F9008958F929F92AF92BF92CF92DF92DC
:1022F000EF92FF92CF93DF93EC01EE8DFF8DC080C4
:10230000D180E280F380CEA2DFA2E8A6F9A6EC8D10
:10231000FD8D80819181A281B3818AA79BA7ACA703
:10232000BDA78EA89FA8A8ACB9ACA5019401C70110
:10233000B6010E943622181664F08AA89BA8ACA8A1
:10234000BDA8A5019401C701B6010E94D72087FF4F
:1023500004C08EA29FA2A8A6B9A6DF91CF91FF903C
:10236000EF90DF90CF90BF90AF909F908F900895A7
:102370004F925F926F927F928F929F92AF92BF9295
:10238000CF92DF92EF92FF920F931F93CF93DF9341
:1023900000D000D000D0CDB7DEB79E838D832A0158
:1023A0003B014801590120E030E0A901C301B2011D
:1023B0000E94D72087FD89C020E030E0A901C50137
:1023C000B4010E94D72087FD80C020E030E0A90141
:1023D000C701B6010E94D72087FD77C081E0ED815B
:1023E000FE81228D338D2130310509F080E0ED81B1
:1023F000FE8183AF408251826282738284829582A1
:10240000A682B782C086D186E286F38666A577A5C6
:1024100080A991A90E94842120E030E04AE754E499
:102420000E94DC2069837A838B839C83ED81FE810B
:1024300044865586668677869B01AC01C501B4014A
:102440000E943B224B015C01ED81FE81608B718B10
:10245000828B938B29813A814B815C81C701B601C4
:102460000E94DC206B017C01ED81FE81648B758B09
:10247000868B978B808D918D019739F5A301920101
:1024800060E070E0CB010E946A20ED81FE816487EC
:10249000758786879787A501940160E070E0CB017E
:1024A0000E946A20ED81FE81608B718B828B938B01
:1024B000A701960160E070E0CB010E946A20ED81E7
:1024C000FE81648B758B868B978B26960FB6F8945E
:1024D000DEBF0FBECDBFDF91CF911F910F91FF9057
:1024E000EF90DF90CF90BF90AF909F908F907F90B4
:1024F0006F905F904F900895CF92DF92EF92FF928E
:10250000FC011082118212821382DB0120E030E094
:102510004D9150E0022E02C0440F551F0A94E2F77D
:10252000052E000C660B770BC080D180E280F38013
:102530004C295D296E297F294083518362837383EF
:10254000285F3F4F2032310519F7FF90EF90DF9061
:10255000CF900895CF92DF92EF92FF9220E030E08B
:102560006A017B01022E04C0F694E794D794C794C5
:102570000A94D2F7FC01C192CF01285F3F4F20326D
:10258000310571F7FF90EF90DF90CF900895089597
:102590000E9409251F920F920FB60F9211242F93BC
:1025A0003F938F939F93AF93BF93809165029091D8
:1025B0006602A0916702B09168023091640223E044
:1025C000230F2D3720F40196A11DB11D05C026E86B
:1025D000230F0296A11DB11D209364028093650212
:1025E00090936602A0936702B0936802809169029B
:1025F00090916A02A0916B02B0916C020196A11DAC
:10260000B11D8093690290936A02A0936B02B0930C
:102610006C02BF91AF919F918F913F912F910F903D
:102620000FBE0F901F9018951F920F920FB60F922A
:1026300011242F933F934F935F936F937F938F93C7
:102640009F93AF93BF93EF93FF93E0911401F091A9
:1026500015010995FF91EF91BF91AF919F918F91D6
:102660007F916F915F914F913F912F910F900FBE8E
:102670000F901F9018951F920F920FB60F92112472
:102680002F933F934F935F936F937F938F939F937A
:10269000AF93BF93EF93FF93E0911201F091130179
:1026A0000995FF91EF91BF91AF919F918F917F918C
:1026B0006F915F914F913F912F910F900FBE0F90AF
:1026C0001F9018951F920F920FB60F9211242F93FF
:1026D0003F934F935F936F937F938F939F93AF93AA
:1026E000BF93EF93FF93E0911001F09111010995D1
:1026F000FF91EF91BF91AF919F918F917F916F91DA
:102700005F914F913F912F910F900FBE0F901F90AF
:1027100018951F920F920FB60F9211242F933F938B
:102720004F935F936F937F938F939F93AF93BF93D9
:10273000EF93FF93E0910E01F0910F010995FF9146
:10274000EF91BF91AF919F918F917F916F915F9129
:102750004F913F912F910F900FBE0F901F901895A2
:102760001F920F920FB60F9211242F933F934F9306
:102770005F936F937F938F939F93AF93BF93EF93E9
:10278000FF93E0910C01F0910D010995FF91EF91FC
:10279000BF91AF919F918F917F916F915F914F9179
:1027A0003F912F910F900FBE0F901F9018951F9281
:1027B0000F920FB60F9211248F939F938091E10097
:1027C0009091E100937F9093E10083FF0FC01092FE
:1027D000E90091E09093EB001092EC0092E390936B
:1027E000ED0010926E0298E09093F00082FF20C0FE
:1027F00093E09093E9009091F200992319F09AE305
:102800009093E80090914C02992339F090914C02FA
:10281000915090934C02992389F190916D029923E4
:1028200039F090916D02915090936D02992341F18E
:1028300084FF10C08091E2008E7E81608093E20070
:102840008091E1008F7E8093E10080914D028E7E29
:10285000806111C080FF16C08091E2008E7E806191
:102860008093E2008091E1008E7E8093E100809170
:102870004D028E7E816080934D0204C05D9ACDCF63
:10288000289AD6CF9F918F910F900FBE0F901F90D7
:1028900018951F920F920FB60F921124CF92DF92CC
:1028A000EF92FF920F931F932F933F934F935F935A
:1028B0006F937F938F939F93AF93BF93EF93FF9308
:1028C000CF93DF93CDB7DEB76C97DEBFCDBF10924D
:1028D000E9008091E80083FFFBC168E0CE014596E6
:1028E0000E94031082EF8093E8008D8987FF05C066
:1028F0009091E80090FFFCCF03C09EEF9093E8001A
:10290000982F907609F0C6C09E894F89588D2F89DF
:10291000F88C91110CC0803829F480915702809373
:10292000F10002C01092F1001092F10045C1913007
:1029300051F4811141C14130510509F03DC18091EF
:1029400057028D7F0BC0933061F4811135C1413046
:10295000510509F031C1809157028260809357027E
:102960002BC1953049F48091E80080FFFCCF822F85
:1029700080688093E30020C1963009F05EC00B8D23
:102980001C8D22E01092E90010924B0210924A0234
:10299000F21232C010924902109248020E94D10FE6
:1029A00099E0BE016F5F7F4FDB01E92F1D92EA9531
:1029B000E9F79983FA8291E09E8390EA98879AEFEB
:1029C000998720914A0230914B02275F3F4F3C8309
:1029D0002B838D831092E90010924B0210924A02D1
:1029E000109349020093480249E050E080E00E94C1
:1029F000AA0F0E94D10FE0C0109349020093480231
:102A00000E940E17DC0112960D911C91139701156F
:102A1000110509F4BBC0D801ED91FC910480F5814A
:102A2000E02DBE016B5E7F4FC8010995009709F04C
:102A3000C7C0F80100851185EACF973009F445C178
:102A4000983021F481E08093F100B6C0993009F00C
:102A5000B3C0837009F039C1EBE5F1E081E031E00A
:102A600096E32081211109C08EE78093EA0010923D
:102A7000EA008F8980936E029FC08093E9003093B3
:102A8000EB0021912093EC009093ED008F5F873055
:102A900041F7EACF8B8D9C8D1092E90010924B028A
:102AA00010924A029093490280934802898D8111C5
:102AB00053C08E899D89913A49F4813209F005C14C
:102AC00047E050E064E071E080E0BBC0913209F083
:102AD000FCC0833269F48F89988DA0E0B0E08093C8
:102AE000000190930101A0930201B093030164C01F
:102AF000803269F48091E80082FFFCCF67E084E0D7
:102B000091E00E9403108BEF8093E80055C0823261
:102B100009F052C08F8980930B01EEEFFFE785919A
:102B200094918B3F9C4D19F0E0E0F8E002C0EEEF8D
:102B3000FAE08091040190910501A0910601B09105
:102B40000701803B9440A105B10509F09EC080912A
:102B50000B0180FF79C099C00E940E17FC01028111
:102B600013810115110509F4B0C0D801ED91FC9154
:102B70000190F081E02DBE016B5E7F4FC801099589
:102B800081111AC0F80100851185EBCFF1E0FF1625
:102B900009F44EC0F3E0FF1298C08F89882309F42E
:102BA0004AC0823089F440E860E180EA92E00E9405
:102BB000750F882309F489C08EEF8093E80088C0E0
:102BC00018161906CCF381C0813029F440E86BE077
:102BD00084E992E0ECCF833009F077C00E940E17B1
:102BE000DC011296ED90FC9013978E010F5F1F4F42
:102BF0006801E114F10479F0D701ED91FC910680B0
:102C0000F781E02DB801C7010995080F111DF701E3
:102C1000E084F184EECFD8011C92F60101900020EF
:102C2000E9F73197BF016C197D0940E0C601BFCFBC
:102C300062E872E002C06EE772E0FB01449150E08E
:102C400080E80E94AA0FB8CFEE3F2AE0F20751F0C9
:102C5000808191818737A7E79A0721F09093FF0A37
:102C60008093FE0A87E797E79183808380916000D5
:102C7000809356029BE088E10FB6F894A895809364
:102C800060000FBE9093600097CF8081918187375D
:102C9000974709F091CFA895809160008861809353
:102CA00060008091560280936000EE3FBAE0FB071F
:102CB00039F08091FE0A9091FF0A918380837CCF46
:102CC0001092FF0A1092FE0A77CF81E28093EB0008
:102CD0006C960FB6F894DEBF0FBECDBFDF91CF91DB
:102CE000FF91EF91BF91AF919F918F917F916F91E4
:102CF0005F914F913F912F911F910F91FF90EF9016
:102D0000DF90CF900F900FBE0F901F9018953FB798
:102D1000F8948091690290916A02A0916B02B0913F
:102D20006C0226B5A89B05C02F3F19F00196A11D86
:102D3000B11D3FBFBA2FA92F982F8827820F911D51
:102D4000A11DB11DBC01CD0142E0660F771F881F98
:102D5000991F4A95D1F70895CF93DF9300D000D003
:102D60001F92CDB7DEB725E631E03A83298323E011
:102D70002B837D836C83DC01ED91FC910190F081CC
:102D8000E02DAE014F5F5F4F67E070E009950F9057
:102D90000F900F900F900F90DF91CF910895209199
:102DA0006E02211103C08FEF9FEF08955FB7F89473
:102DB00022E02093E9002091F20030E01216130681
:102DC00014F421E030E0422FFC0184E6415038F059
:102DD000289880936D029091F1009193F7CF21157F
:102DE000310521F08091F200882319F05FBFC901FD
:102DF00008958BE68093E800F9CF2FB7F89483E02D
:102E00008093E9009091E800892F807295FF04C0BB
:102E10009091F20080E4891B2FBF089580916D0886
:102E200081110DC082E08093690884E080936A0874
:102E300010926C0810926B0881E080936D0889E60F
:102E400098E00895362F90E0FC01E55FFC4F449137
:102E5000FC01E451FD4F2491FC01E353FD4F8491AB
:102E6000882309F452C04423E1F150E0FA0131977C
:102E7000EF30F105B0F5EA5AFF4F0C94EE22909135
:102E800080009F7707C0909180009F7D03C0909144
:102E90008000977F9093800024C094B59F7702C0F4
:102EA00094B59F7D94BD1DC0909190009F7707C001
:102EB000909190009F7D03C090919000977F909398
:102EC00090000FC09091C0009F7703C09091C00008
:102ED0009F7D9093C00005C09091C200977F909312
:102EE000C200E82FF0E0EE0FFF1FE154FD4FA59167
:102EF000B4919FB7F894311104C08C912095282388
:102F000002C0EC912E2B2C939FBF0895CF93DF939B
:102F100090E0FC01E451FD4F2491FC01E353FD4F8F
:102F20008491882361F190E0880F991FFC01EF5490
:102F3000FD4FC591D491FC01E154FD4FA591B49191
:102F4000611109C09FB7F8948881209582238883F6
:102F5000EC912E230BC0623061F49FB7F894888106
:102F6000322F309583238883EC912E2B2C939FBF97
:102F700006C08FB7F894E8812E2B28838FBFDF918E
:102F8000CF9108951F93CF93DF93182FEB0161E04A
:102F90000E948617209711F460E004C0CF3FD1054E
:102FA00039F461E0812FDF91CF911F910C942217AA
:102FB000E12FF0E0E55FFC4FE4918E2F90E0FC0103
:102FC0003197EF30F10508F06CC0EB59FF4F0C94CE
:102FD000EE2284B5806884BDC7BD68C084B58062B8
:102FE00084BDC8BD63C080918000806880938000EC
:102FF000D0938900C093880059C08091800080627E
:1030000080938000D0938B00C0938A004FC0809142
:103010008000886080938000D0938D00C0938C00E6
:1030200045C080919000806880939000D093990073
:10303000C09398003BC08091900080628093900084
:10304000D0939B00C0939A0031C08091900088601B
:1030500080939000D0939D00C0939C0027C08091E6
:10306000C00080688093C0008091C0008F7B8093F7
:10307000C000C093CF001AC08091C00080628093CE
:10308000C000C093D00012C08091C20088608093BD
:10309000C2008091C2008B7F8093C200C093D20097
:1030A00005C0C038D1050CF07CCF76CFDF91CF9131
:1030B0001F9108958F929F92AF92BF92CF92DF920D
:1030C000EF92FF926B017C010E9487164B015C011D
:1030D000C114D104E104F104F1F00E948716DC016F
:1030E000CB0188199909AA09BB09883E9340A1051B
:1030F000B10570F321E0C21AD108E108F10888EEA9
:10310000880E83E0981EA11CB11CC114D104E104F7
:10311000F10419F7DDCFFF90EF90DF90CF90BF90D3
:10312000AF909F908F9008952FB7F89460916502AB
:103130007091660280916702909168022FBF089596
:103140004F925F926F927F928F929F92AF92BF92B7
:10315000CF92DF92EF92FF920F931F93CF93DF9363
:10316000CDB7DEB74C01DC015F965C934E935E9762
:103170005D967C936E935C9791963C932E9390977B
:10318000DA961C92FC0112AA13AA14AA15AA80E0CE
:1031900090E0AFE7B3E486AB97ABA0AFB1AF84E606
:1031A00090E0A0E0B0E086A797A7A0ABB1AB118EEE
:1031B000108E20E030E0A901C801B7010E94D7209D
:1031C00087FD56C020E030E0A901C601B5010E948C
:1031D000D72087FD4DC020E030E0A9016B897C89B4
:1031E0008D899E890E94D72087FD42C081E090E0B2
:1031F000D4015B969C938E935A97DB968C93DB97C6
:10320000F401E082F182028313831496AD92BD92A1
:10321000CD92DC9217978B899C89AD89BE89808776
:103220009187A287B387D4011C96ED92FD920D93EE
:103230001C931F972DEC3CEC4CEC5DE3C601B501F3
:103240000E943B22F401608B718B828B938B2DEC5F
:103250003CEC4CEC5DE36B897C898D899E890E94F6
:10326000DC20D40154966D937D938D939C93579756
:103270000E949418F401C6A4D7A4E0A8F1A8DC0128
:10328000CB018C199D09AE09BF0982A393A3A4A306
:10329000B5A3DF91CF911F910F91FF90EF90DF9039
:1032A000CF90BF90AF909F908F907F906F905F90E6
:1032B0004F9008950F931F93CF93DF93CDB7DEB751
:1032C0002A970FB6F894DEBF0FBECDBF8C0181E701
:1032D00091E09A8389831B821C821D821E821F8239
:1032E000188619861A86D801ED91FC910190F0811B
:1032F000E02DAE014F5F5F4F6AE070E0C8010995B5
:103300000E949418F80160877187828793872A96B4
:103310000FB6F894DEBF0FBECDBFDF91CF911F91E6
:103320000F9108958130E1F148F18230A9F08330A6
:1033300009F049C070934102609340028BE499E028
:1033400090930D0180930C01809169008C7F8160C6
:1033500080936900E89A35C07093430260934202FB
:1033600085E499E090930F0180930E0180916900AC
:10337000837F846080936900E99A23C0709345023B
:10338000609344028FE399E09093110180931001C0
:10339000809169008F7C806180936900EA9A11C0F6
:1033A000709347026093460289E399E0909313017A
:1033B00080931201809169008F738064809369000B
:1033C000EB9A81E0089580E008950F931F93CF93C7
:1033D000DF93EC01062F142F62E0802F0E948617E6
:1033E00062E0812F0E948617802F90E0FC01E3535A
:1033F000FD4FE491F0E0EE0FFF1FE750FE4FA59167
:10340000B491B983A883FC01E451FD4F24912C832E
:10341000812F90E0FC01E353FD4FE491F0E0EE0FCB
:10342000FF1FE750FE4F459154915B834A83FC0197
:10343000E451FD4F94919D831F82188619861A8648
:10344000EBE3FFE13197F1F7EC91E22331E009F48E
:1034500030E0DA01EC91E92309F032603E83BE01ED
:10346000802F0E9492198B87BE01812F0E94921992
:103470009B85890F8B87DF91CF911F910F910895C5
:10348000FC018EE291E09183808382E291E093835C
:103490008283148215821682178210861186128604
:1034A00013861486158616861786918B808B128A52
:1034B000138A148A158A168A178A108E118E128E14
:1034C000138E148E158E0895789484B5826084BD11
:1034D00084B5816084BD85B5826085BD85B5816018
:1034E00085BD80916E00816080936E001092810096
:1034F0008091810082608093810080918100816051
:103500008093810080918000816080938000809111
:1035100091008260809391008091910081608093FE
:103520009100809190008160809390008091C10013
:1035300084608093C1008091C10082608093C1004B
:103540008091C10081608093C1008091C30081603F
:103550008093C3008091C00082608093C0008091FE
:10356000C20081608093C20080917A008460809361
:103570007A0080917A00826080937A0080917A004C
:10358000816080937A0080917A00806880937A00CD
:1035900010926E021092570210924D028091D70045
:1035A00081608093D70080EA8093D80089B58061DC
:1035B00089BD89B5826089BD09B400FEFDCF61E097
:1035C00070E080E090E00E945A188091D8008F7CD3
:1035D00080618093D8008091E000807F8093E0003C
:1035E0008091E1008E7E8093E1008DE08093E20087
:1035F000559A209A61E087E00E94861761E086E094
:103600000E94861761E084E00E94861761E085E0F1
:103610000E94861760E082E00E94861760E083E0E7
:103620000E94861760E080E00E94861760E081E0DB
:103630000E9486170E949418609360027093610242
:10364000809362029093630210925202109253028E
:10365000109254021092550210924E0210924F0294
:1036600010925002109251028091FD02811104C00B
:1036700083EC92E00E94721181E08093FD028091C0
:10368000B502811104C08BE792E00E94721181E0C3
:103690008093B502C12CD12CFFE7EF2EF3ECFF2E67
:1036A000C092F502D092F602E092F702F092F80290
:1036B000412C512CAFE76A2EA3E47A2E4092F902F6
:1036C0005092FA026092FB027092FC028091FD021D
:1036D000882309F453C0C091E102D091E2028880AE
:1036E0009980AA80BB80A3019201C501B4010E9408
:1036F000362218162CF4488259826A827B820EC0C8
:1037000020E030E04FE753ECC501B4010E94D72020
:1037100087FF04C0C882D982EA82FB828090E902D6
:103720009090EA02A090EB02B090EC02C090F902F7
:10373000D090FA02E090FB02F090FC02A701960103
:10374000C501B4010E943622181684F0C090F5021B
:10375000D090F602E090F702F090F802A7019601EF
:10376000C501B4010E94D72087FF08C0C092E902BA
:10377000D092EA02E092EB02F092EC02C12CD12C42
:103780007FE7E72E73ECF72EC092AD02D092AE0227
:10379000E092AF02F092B002412C512CEFE76E2E76
:1037A000E3E47E2E4092B1025092B2026092B302E4
:1037B0007092B402C0919902D0919A028880998047
:1037C000AA80BB80A3019201C501B4010E943622E8
:1037D00018162CF4488259826A827B820EC020E03F
:1037E00030E04FE753ECC501B4010E94D72087FFBA
:1037F00004C0C882D982EA82FB828090A1029090A4
:10380000A202A090A302B090A402C090B102D090F6
:10381000B202E090B302F090B402A7019601C50194
:10382000B4010E943622181684F0C090AD02D090E8
:10383000AE02E090AF02F090B002A7019601C50180
:10384000B4010E94D72087FF08C0C092A102D09285
:10385000A202E092A302F092A4026091A9027091E8
:10386000AA028091AB029091AC020E9484219B013C
:10387000AC0160E070E080E291E40E94DC206B012A
:103880007C019B01AC0160918B0270918C02809154
:103890008D0290918E020E943B2260938B02709366
:1038A0008C0280938D0290938E02A7019601609105
:1038B0008F027091900280919102909192020E94E9
:1038C000DC2060938F02709390028093910290931A
:1038D00092026AE0C62ED12CE12CF12CC092A902F2
:1038E000D092AA02E092AB02F092AC026091F10297
:1038F0007091F2028091F3029091F4020E9484216F
:103900009B01AC0160E070E080E291E40E94DC2069
:103910004B015C019B01AC016091D3027091D40218
:103920008091D5029091D6020E943B226093D302EF
:103930007093D4028093D5029093D602A50194018E
:103940006091D7027091D8028091D9029091DA02E9
:103950000E94DC206093D7027093D8028093D90232
:103960009093DA02C092F102D092F202E092F30256
:10397000F092F40268EB7BE080E090E00E945A183D
:10398000E091A503F091A6038FEF9FEF95878487C1
:1039900010921C0810921B0810921E0810921D080D
:1039A00010922208109221081092200810921F08ED
:1039B000A7EBB7E0FD0180E090E021913191232B4E
:1039C000B1F4FC01EE0FFF1FE954F84F2AE733E092
:1039D0003183208383589F4F9093800380937F038C
:1039E00083EA93E0909382038093810304C001965D
:1039F0008931910511F780E090E02D913D91232BC5
:103A0000B1F4FC01EE0FFF1FE954F84F21E533E05C
:103A10003183208383589F4F90935703809356039D
:103A200083EA93E0909359038093580304C001966E
:103A30008931910511F7A9EEB7E0FD0180E090E032
:103A400021913191232B81F4FC01EE0FFF1FE751EF
:103A5000F84F28E233E0318320838C599F4F9093B5
:103A60002B0380932A0304C001968931910541F705
:103A700080E090E02D913D91232BC1F4FC01EE0FED
:103A8000FF1FE751F84F2FEF32E0318320838C592D
:103A90009F4F909302038093010380E0282E80E0E3
:103AA000382E01E010E0CFEFDFEF92C101968931AF
:103AB000910501F7F2CF80916808823008F0AAC121
:103AC000F8948DE598E00E94F70880906408909043
:103AD0006508A0906608B0906708789480915C08AB
:103AE000823008F099C1F89481E598E00E94F708C7
:103AF000409058085090590860905A0870905B08A0
:103B00007894F894109264081092650810926608F0
:103B1000109267087894F8941092580810925908F7
:103B200010925A0810925B08789460915C02709130
:103B30005D0280915E0290915F020E94862120E0EA
:103B400030E04CEC54E40E943B226B017C01C50147
:103B5000B4010E94862120E030E048E453E40E9452
:103B60003B2223EC35EF48E450E40E943B22A701BE
:103B700096010E94DC204B015C01C301B2010E944E
:103B8000862120E030E048E453E40E943B2223EC0D
:103B900035EF48E450E40E943B22A70196010E94C1
:103BA000DC206B017C018092890390928A03A092B1
:103BB0008B03B0928C0360938D0370938E0380937C
:103BC0008F03909390038092600390926103A09280
:103BD0006203B09263036093640370936503809300
:103BE0006603909367038091520290915302A091D3
:103BF0005402B091550280936E0390936F03A0938B
:103C00007003B093710380914E0290914F02A09186
:103C10005002B09151028093720390937303A0936A
:103C20007403B09375038091580390915903609188
:103C3000560370915703DC01ED91FC910190F081E6
:103C4000E02D4CE553E0099580918103909182032A
:103C500060917F0370918003DC01ED91FC910190F4
:103C6000F081E02D45E853E0099580915202909152
:103C70005302A0915402B09155028093B7029093E1
:103C8000B802A093B902B093BA0280914E0290910B
:103C90004F02A0915002B091510280936F02909315
:103CA0007002A0937102B09372028092BF02909250
:103CB000C002A092C102B092C202C0927702D0921A
:103CC0007802E0927902F0927A020E94941860934E
:103CD000600270936102809362029093630280910C
:103CE000FD02882321F083EC92E00E941010809165
:103CF000B502882321F08BE792E00E941010C0905B
:103D0000BB02D090BC02E090BD02F090BE0220E069
:103D100030E0A901C701B6010E94D72087FF7EC00D
:103D200060E084E00E942217D0935B02C0935A02A5
:103D3000C0907302D0907402E0907502F090760209
:103D400020E030E0A901C701B6010E94D72087FF1B
:103D500077C060E087E00E942217D0935902C09399
:103D6000580260915A0270915B02072E000C880B7A
:103D7000990B0E9486212091BB023091BC02409198
:103D8000BD025091BE020E943B220E944E2185E05E
:103D90000E94C2176091580270915902072E000CC0
:103DA000880B990B0E948621209173023091740236
:103DB00040917502509176020E943B220E944E2152
:103DC00086E00E94C2172114310411F00E94000005
:103DD00083EA93E00E94B50B0E949418C0906002A1
:103DE000D0906102E0906202F0906302DC01CB01AE
:103DF0008C199D09AE09BF0980935C0290935D0206
:103E0000A0935E02B0935F020A97A105B1050CF47E
:103E100066CF51CEF89459CEF8946ACE20E030E0C7
:103E2000A901C701B6010E94362287FD81CF61E05A
:103E300084E00E94221710935B0200935A0278CF0D
:103E400020E030E0A901C701B6010E94362287FDBB
:103E500088CF61E087E00E942217109359020093F7
:103E600058027FCF9F92AF92BF92CF92DF92EF9294
:103E7000FF920F931F93CF93DF93109278081092C5
:103E8000770888EE93E0A0E0B0E080937908909303
:103E90007A08A0937B08B0937C088DE791E090931B
:103EA0007608809375088FEF9FEF90938208809338
:103EB000810841E060E08DE598E00E94E51943E06B
:103EC00062E081E598E00E94E51987EA91E090932D
:103ED000A4038093A30385E798E09093A6038093BF
:103EE000A50380E091EEA0E0B0E08093A70390935B
:103EF000A803A093A903B093AA03109225088FE802
:103F000091E0909334088093330810923508109212
:103F10003608109237081092380810923E08109216
:103F20003D0810923F0810924008109241081092EC
:103F300042081092480810924708109249081092BF
:103F40004A0810924B0810924C0810925008109298
:103F50004F08E9EEF7E0A7EBB7E01D921D92EA17D4
:103F6000FB07D9F78BE198E0119211928E179F070A
:103F7000D9F7A7EBB3E0E7EBF5E01D92EA17FB07F3
:103F8000E1F7119287E0E73BF807D9F785E893E07E
:103F90000E94401A8AE192E090937B0380937A0317
:103FA00010927C0385E893E090937E0380937D03D9
:103FB00010928403109283038CE593E00E94401AD0
:103FC00082E292E090935203809351031092530344
:103FD0008CE593E0909355038093540310925B0318
:103FE00010925A0301EB11E0109329030093280368
:103FF0008FE293E00E94401A80EC91E090934E0390
:1040000080934D03C1E0D0E0D0935003C0934F03A1
:104010008CE292E090932D0380932C0310922E0358
:10402000109300030093FF0286E093E00E94401A81
:1040300088E294E09093250380932403D093270390
:10404000C093260388E392E09093040380930303D4
:10405000109205038DE3982E9F92CCECCF93CF93D3
:10406000DDECDF939AE0A92E97EDB92E93E2C92EED
:104070009CE3D92EE12CF12C02E812E427EB32E08C
:104080004BEB52E06FEB72E083EC92E00E94A018E1
:104090009F92CF93CF93DF932FE632E043E752E036
:1040A00067E772E08BE792E00E94A0188DB79EB799
:1040B00008960FB6F8949EBF0FBE8DBFDF91CF91CB
:1040C0001F910F91FF90EF90DF90CF90BF90AF9036
:1040D0009F9008955058BB27AA270E9482200C94D5
:1040E000FC210E94EE2138F00E94F52120F039F4E5
:1040F0009F3F19F426F40C94EB210EF4E095E7FBB6
:104100000C94E521E92F0E940D2258F3BA1762079B
:1041100073078407950720F079F4A6F50C942F22F5
:104120000EF4E0950B2EBA2FA02D0B01B9019001D2
:104130000C01CA01A0011124FF27591B99F0593F16
:1041400050F4503E68F11A16F040A22F232F342F5E
:104150004427585FF3CF469537952795A795F040AC
:104160005395C9F77EF41F16BA0B620B730B840BC1
:10417000BAF09150A1F0FF0FBB1F661F771F881F79
:10418000C2F70EC0BA0F621F731F841F48F48795D1
:1041900077956795B795F7959E3F08F0B0CF9395C3
:1041A000880F08F09927EE0F9795879508950E943C
:1041B000C12108F481E008950E94F0200C94FC21B4
:1041C0000E94F52158F00E94EE2140F029F45F3F53
:1041D00029F00C94E52151110C9430220C94EB2120
:1041E0000E940D2268F39923B1F3552391F3951B97
:1041F000550BBB27AA2762177307840738F09F5F08
:104200005F4F220F331F441FAA1FA9F335D00E2E74
:104210003AF0E0E832D091505040E695001CCAF7E1
:104220002BD0FE2F29D0660F771F881FBB1F2617A4
:1042300037074807AB07B0E809F0BB0B802DBF017B
:10424000FF2793585F4F3AF09E3F510578F00C944A
:10425000E5210C9430225F3FE4F3983ED4F3869539
:1042600077956795B795F7959F5FC9F7880F911D6B
:104270009695879597F90895E1E0660F771F881F57
:10428000BB1F621773078407BA0720F0621B730B0A
:10429000840BBA0BEE1F88F7E09508950E94552114
:1042A0006894B1110C94302208950E94152288F070
:1042B0009F5798F0B92F9927B751B0F0E1F0660FEA
:1042C000771F881F991F1AF0BA95C9F714C0B1302B
:1042D00091F00E942F22B1E008950C942F22672FB5
:1042E000782F8827B85F39F0B93FCCF3869577955A
:1042F0006795B395D9F73EF4909580957095619543
:104300007F4F8F4F9F4F0895E89409C097FB3EF46D
:1043100090958095709561957F4F8F4F9F4F992312
:10432000A9F0F92F96E9BB279395F6958795779590
:104330006795B795F111F8CFFAF4BB0F11F460FF50
:104340001BC06F5F7F4F8F4F9F4F16C0882311F0A8
:1043500096E911C0772321F09EE8872F762F05C0BC
:10436000662371F096E8862F70E060E02AF09A9557
:10437000660F771F881FDAF7880F9695879597F94C
:104380000895990F0008550FAA0BE0E8FEEF1616E6
:104390001706E807F907C0F012161306E407F50739
:1043A00098F0621B730B840B950B39F40A2661F0AD
:1043B000232B242B252B21F408950A2609F4A14050
:1043C000A6958FEF811D811D089597F99F6780E85D
:1043D00070E060E008959FEF80EC089500240A9457
:1043E0001616170618060906089500240A941216D0
:1043F0001306140605060895092E0394000C11F403
:10440000882352F0BB0F40F4BF2B11F460FF04C0AF
:104410006F5F7F4F8F4F9F4F089557FD9058440F08
:10442000551F59F05F3F71F04795880F97FB991F13
:1044300061F09F3F79F087950895121613061406D0
:10444000551FF2CF4695F1DF08C01616170618065D
:10445000991FF1CF86957105610508940895E89438
:10446000BB2766277727CB0197F908950E94C121C2
:1044700008F48FEF08950E944E220C94FC210E94B4
:10448000EE2138F00E94F52120F0952311F00C94D4
:10449000E5210C94EB2111240C9430220E940D2272
:1044A00070F3959FC1F3950F50E0551F629FF00187
:1044B000729FBB27F00DB11D639FAA27F00DB11DA0
:1044C000AA1F649F6627B00DA11D661F829F222729
:1044D000B00DA11D621F739FB00DA11D621F839FB0
:1044E000A00D611D221F749F3327A00D611D231F86
:1044F000849F600D211D822F762F6A2F11249F57D4
:1045000050409AF0F1F088234AF0EE0FFF1FBB1FD6
:10451000661F771F881F91505040A9F79E3F510595
:1045200080F00C94E5210C9430225F3FE4F3983E38
:10453000D4F3869577956795B795F795E7959F5F3F
:10454000C1F7FE2B880F911D9695879597F90895D1
:10455000DB018F939F930E94F422BF91AF91A29FA2
:10456000800D911DA39F900DB29F900D1124089571
:1045700097FB072E16F4009407D077FD09D00E9410
:10458000FF2207FC05D03EF4909581959F4F08953A
:10459000709561957F4F0895A1E21A2EAA1BBB1B4F
:1045A000FD010DC0AA1FBB1FEE1FFF1FA217B307FF
:1045B000E407F50720F0A21BB30BE40BF50B661F15
:1045C000771F881F991F1A9469F7609570958095D9
:1045D00090959B01AC01BD01CF010895EE0FFF1F27
:1045E0000590F491E02D09940E941323A59F900D4E
:1045F000B49F900DA49F800D911D11240895AA1BB6
:10460000BB1B51E107C0AA1FBB1FA617B70710F0BD
:10461000A61BB70B881F991F5A95A9F780959095EF
:10462000BC01CD010895A29FB001B39FC001A39F1B
:10463000700D811D1124911DB29F700D811D1124DB
:10464000911D08950F931F93CF93DF9382309105AF
:1046500010F482E090E0E091C708F091C80820E0F3
:1046600030E0A0E0B0E0309719F140815181028143
:10467000138148175907C8F08417950769F41097F4
:1046800031F012960C93129713961C9327C0009347
:10469000C7081093C80822C02115310519F0421728
:1046A000530718F49A01BD01EF01DF01F801DBCFD8
:1046B00021153105F9F0281B390B2430310580F420
:1046C0008A819B816115710521F0FB0193838283AF
:1046D00004C09093C8088093C708FE01329644C076
:1046E000FE01E20FF31F8193919322503109398328
:1046F00028833AC02091C5083091C608232B41F485
:1047000020911801309119013093C6082093C508F3
:1047100020911601309117012115310541F42DB773
:104720003EB740911A0150911B01241B350BE091BB
:10473000C508F091C608E217F307A0F42E1B3F0B43
:104740002817390778F0AC014E5F5F4F2417350703
:1047500048F04E0F5F1F5093C6084093C5088193E1
:10476000919302C0E0E0F0E0CF01DF91CF911F9183
:104770000F910895CF93DF93009709F481C0FC0156
:10478000329713821282A091C708B091C80810977F
:1047900081F420813181820F931F2091C5083091CF
:1047A000C6082817390751F5F093C608E093C508E5
:1047B00067C0ED0120E030E0CE17DF0740F44A810A
:1047C0005B819E0141155105F1F0EA01F5CFD383DC
:1047D000C28340815181840F951FC817D90759F4AE
:1047E00088819981840F951F0296918380838A81A5
:1047F0009B81938382832115310529F4F093C808A6
:10480000E093C7083DC0E901FB83EA8349915991D0
:10481000C40FD51FEC17FD0761F480819181840FCF
:10482000951F0296E90199838883828193819B83F6
:104830008A83E0E0F0E012968D919C9113970097A7
:1048400019F0FD01DC01F7CF8D919C9111979D012D
:104850002E5F3F4F820F931F2091C5083091C608ED
:104860002817390769F4309729F41092C808109274
:10487000C70802C013821282B093C608A093C5086D
:10488000DF91CF910895A0E0B0E0E9E4F4E20C9468
:104890001B25EC01009721F4CB010E942223B4C018
:1048A000FC01E60FF71F9C0122503109E217F307C4
:1048B00008F4A8C0D9010D911C911197061717078C
:1048C000B0F00530110508F49BC0C80104978617A5
:1048D000970708F495C002501109061B170B0193A6
:1048E00011936D937C93CF010E94BA2389C05B0121
:1048F000A01AB10A4C01800E911EA091C708B09178
:10490000C808612C712CE12CF12C109709F446C0D9
:104910008D919C911197A815B905B1F56C0142E0F4
:10492000C40ED11CCA14DB0478F14C018A189B0810
:10493000640142E0C40ED11C1296BC9012971396EB
:10494000AC91B5E0CB16D10440F0B282A383918242
:104950008082D9016D937C9309C00E5F1F4F800F39
:10496000911FF90191838083EB2DFA2FE114F1045B
:1049700031F0D7011396FC93EE93129741C0F09358
:10498000C808E093C7083CC06816790608F43C01E3
:104990007D0112960D90BC91A02DB7CF8091C508D6
:1049A0009091C60888169906E1F466167706C8F451
:1049B0008091160190911701009741F48DB79EB731
:1049C00040911A0150911B01841B950BE817F907C0
:1049D000C8F4F093C608E093C508F90171836083B9
:1049E0000FC0CB010E9422237C01009759F0A8013F
:1049F000BE010E940E25CE010E94BA23C70104C049
:104A0000CE0102C080E090E0CDB7DEB7EEE00C94BE
:104A1000372581E090E0F8940C944E25FB01DC01F1
:104A200002C001900D9241505040D8F708952F9246
:104A30003F924F925F926F927F928F929F92AF922E
:104A4000BF92CF92DF92EF92FF920F931F93CF937B
:104A5000DF93CDB7DEB7CA1BDB0B0FB6F894DEBF12
:104A60000FBECDBF09942A88398848885F846E8438
:104A70007D848C849B84AA84B984C884DF80EE8082
:104A8000FD800C811B81AA81B981CE0FD11D0FB68B
:104A9000F894DEBF0FBECDBFED010895F894FFCFAF
:104AA000FFFFFFFF00E1000000000000C712C71277
:104AB000C712C712C7120000C9088000000000001A
:104AC0000000DC031A03DF01DC01000000000C041D
:104AD0004403490A460A00000000A4095109560986
:104AE000A20900000000E401A9095A04E201000043
:104AF00000006608B204FF01FC0100C180810000D3
:104B0000000000000034085C04F901F60100000018
:104B1000004E0208020502020200000000020A50D4
:104B20000AD60A180A230AFE0ADA0A000000005B05
:104B300007A005F301F00100000000C812C812C868
:104B400012C81200000000310BB50B410A00000032
:104B5000001C0B4C0A490A460A4D65737361676570
:104B60002066726F6D206465766963652064726F7C
:104B7000707065643A206D657373616765206C6160
:104B800072676572207468616E2062756666657210
:104B90002E00466C6173682072656164206E6F74CC
:104BA00020696D706C00427566666572206F76656F
:104BB00072666C6F7720707562006172645F6F64FB
:104BC0006F006172645F6465627567006172645F43
:104BD000636D645F76656C006172645F7069640028
:00000001FF
