:100000000C94F3000C94DC0D0C94B50D0C948E0D37
:100010000C94670D0C941B010C941B010C94400D67
:100020000C941B010C941B010C9462100C94D410C2
:100030000C941B010C941B010C941B010C941B01D0
:100040000C941B010C941B010C941B010C941B01C0
:100050000C941B010C941B010C941B010C94F60CCA
:100060000C941B010C941B010C941B010C941B01A0
:100070000C941B010C941B010C941B010C941B0190
:100080000C941B010C941B010C941B010C941B0180
:100090000C941B010C941B010C941B010C941B0170
:1000A0000C941B010C941B010C941B012F13321395
:1000B00021132513291353135313531336133A13D0
:1000C0003E134413481353134E13CA13CF13D413C0
:1000D000DE13E813321432143214F213FC13061434
:1000E00010141D14321425140000000023002600F3
:1000F00029002C002F0000000000240027002A0007
:100100002D00300000000000250028002B002E00EC
:10011000310004040404040304050202020204037F
:100120000202020206060606060604040202020491
:1001300004040802011040804010204080408008E4
:100140000204018040201002011080102040402055
:100150000000000200090F0000030401000C000071
:100160000000000000000000000000000000000887
:100170000B0002020201000904000001020200005B
:1001800005240010010524010101042402060524B0
:100190000600010705810310004009040100020A5E
:1001A000000000070502024000000705830240002E
:1001B000000403090412010002EF0201404123364A
:1001C0008000010102030141726475696E6F204C69
:1001D0004C430041726475696E6F204C656F6E61AF
:1001E00072646F00571511241FBECFEFDAE0DEBF37
:1001F000CDBF13E0A0E0B1E0E8E4FEE302C005906B
:100200000D92AC33B107D9F729E0ACE3B3E001C0FC
:100210001D92A331B207E1F710E0C3EFD0E004C0B4
:100220002197FE010E94B21CC23FD107C9F70E946C
:10023000DA160C94221F0C9400000895FC01EA5772
:10024000FB4F808108958BEB91E008958CED91E058
:100250000895FC0186A197A10895AF92BF92CF9215
:10026000DF92EF92FF920F931F93CF93DF9300D013
:1002700000D01F92CDB7DEB78C016B0164367105DB
:100280003CF0FC01EA57FB4F8081882309F478C0D9
:10029000DA01ED91FC910190F081E02DB801615EF1
:1002A0007D4FCA0109957801B8EEEB1ABDEFFB0A44
:1002B0002FEFF70120832EEF319620833196808334
:1002C000319690833196292F280F209520833196DF
:1002D000C082D801A25EBD4FDC9245E050E020E034
:1002E00030E0BC016A5F7F4F6417750734F0A1915D
:1002F0002A0F311D4F5F5F4FF7CF6C01F8E0CF0E33
:10030000D11C800F911FFC01E15EFD4F20952083E1
:1003100021E0C21622E0D206CCF45701C5018E19A5
:100320009F098C159D0584F4D80112968D919C919E
:100330001397F50161915F01DC01ED91FC91019052
:10034000F081E02D0995EACFC6011CC084E591E05B
:100350009A83898383E08B8380EF91E09D838C83F4
:10036000D801ED91FC910190F081E02DAE014F5F3D
:100370005F4F67E070E0C80109958FEF9FEF02C003
:1003800080E090E00F900F900F900F900F90DF9112
:10039000CF911F910F91FF90EF90DF90CF90BF9082
:1003A000AF900895CF92DF92EF92FF92FC011082FE
:1003B000118212821382DB0120E030E04D9150E087
:1003C000022E02C0440F551F0A94E2F7052E000CBE
:1003D000660B770BC080D180E280F3804C295D29C9
:1003E0006E297F294083518362837383285F3F4F47
:1003F0002032310519F7FF90EF90DF90CF900895EC
:10040000CF92DF92EF92FF9220E030E06A017B0111
:10041000022E04C0F694E794D794C7940A94D2F7B6
:10042000FC01C192CF01285F3F4F2032310571F7A7
:10043000FF90EF90DF90CF900895CF93DF93E5E5A5
:10044000F3E0DC0114964D915D916D917C911797CD
:10045000448355836683778318968D919D910D9083
:10046000BC91A02D80839183A283B383DF91CF9130
:1004700008958130E1F148F18230A9F0833009F02C
:1004800049C070933D0360933C0387E59EE09093E1
:10049000010180930001809169008C7F81608093CD
:1004A0006900E89A35C070933F0360933E0381E58D
:1004B0009EE0909303018093020180916900837F05
:1004C000846080936900E99A23C07093410360932C
:1004D00040038BE49EE0909305018093040180919A
:1004E00069008F7C806180936900EA9A11C07093E3
:1004F00043036093420385E49EE090930701809359
:100500000601809169008F73806480936900EB9A83
:1005100081E0089580E008958BEB91E008958CEDE3
:1005200091E0089589E292E008958AE492E00895C6
:1005300080E692E008958CE191E0089581E892E0F0
:10054000089582EA92E008958F929F92AF92BF92AF
:10055000CF92DF92EF92FF920F931F93CF93DF938F
:1005600000D000D0CDB7DEB77C018B01FB018191BB
:10057000BF01F7018283CE0101960E94D2018981D9
:100580009A81AB81BC814C015D01F5E08F0E911C1D
:10059000A11CB11C680125E0C20ED11CA601401BA4
:1005A000510B60E070E0481559056A057B0548F479
:1005B000F60141916F019F0122503109F9014083F9
:1005C000EDCFF801E80FF91F14820C5F1F4FF70100
:1005D0001483038305960F900F900F900F90DF9177
:1005E000CF911F910F91FF90EF90DF90CF90BF9030
:1005F000AF909F908F90089585EB92E0089586EDDF
:1006000092E008954F925F926F927F928F929F92A5
:10061000AF92BF92CF92DF92EF92FF920F931F9310
:10062000CF93DF93CDB7DEB72C970FB6F894DEBF2C
:100630000FBECDBF7C018B01DB018C9190E0F701F7
:100640009383828311962C91922B938382836E5F86
:100650007F4FCE0109960E94D20189849A84AB848F
:10066000BC84B501A4014A5F5F4F6F4F7F4FF80113
:100670003696CF01801B910BA0E0B0E08417950760
:10068000A607B70728F48191DF0112978C93F1CF69
:10069000F801E80DF91D1582C8010596D7011596D8
:1006A0009C938E931497B4016A5F7F4F600F711F04
:1006B000CE0105960E94D201BAE08B0E911C4D81AD
:1006C0005E816F8178852401092C000C660877080B
:1006D000440E551E661E771EF801E80DF91DCF0168
:1006E000801B910BA0E0B0E084159505A605B70529
:1006F00028F48191DF0112978C93F1CF6401C40E2D
:10070000D51EB8016C0D7D1DFB0131971082C4010F
:100710000197800F911FF70197838683CE01019681
:100720000E94D201A6014C5F5F4F49805A806B80C6
:100730007C804A01052E000CAA08BB08840C951C7D
:10074000A61CB71CF801E40FF51F9F01201B310BFD
:10075000C901A0E0B0E088159905AA05BB0528F4F9
:100760008191DF0112978C93F0CFCA01840D951D02
:10077000F801E80FF91FDF0111971C929A0121502F
:100780003109020F131FD70119961C930E93189766
:100790002181428150E060E070E0BA015527442792
:1007A000522B2081422B2381722BF70142875387E2
:1007B0006487758704962C960FB6F894DEBF0FBE3B
:1007C000CDBFDF91CF911F910F91FF90EF90DF9000
:1007D000CF90BF90AF909F908F907F906F905F90E1
:1007E0004F9008958FEE92E0089580E193E0089590
:1007F000FC01DB014C9150E060E070E042835383E8
:100800006483758311968C911197582B428353837F
:100810006483758312968C911297682B428353835D
:100820006483758313968C911397782B428353833B
:100830006483758314964C91149750E060E070E0E7
:10084000468357836087718715968C911597582B2F
:10085000468357836087718716968C911697682B0D
:10086000468357836087718717968C91782B4683D0
:1008700057836087718788E090E00895DC01FB0171
:1008800012968C911297808313968C911397818383
:1008900014968C911497828315968C911597838367
:1008A00016968C911697848317968C91179785834B
:1008B00018968C911897868319968C91878388E077
:1008C00090E008958F929F92AF92BF92CF92DF9265
:1008D000EF92FF920F931F93FC01DB01C380C29440
:1008E000C69427E0C2228C2C912CA12CB12C8D9285
:1008F0009D92AD92BC921397C480D12CE12CF12C27
:1009000033E0CC0CDD1CEE1CFF1C3A95D1F7C82857
:10091000D928EA28FB28CD92DD92ED92FC9213971C
:10092000058110E020E030E04BE0000F111F221F96
:10093000331F4A95D1F7C02AD12AE22AF32ACD9251
:10094000DD92ED92FC92139706810F7010E020E08B
:1009500030E053E1000F111F221F331F5A95D1F7CA
:100960000C291D292E293F290D931D932D933C936E
:100970001397868182958F7047814F7750E060E0B2
:1009800070E094E0440F551F661F771F9A95D1F7CA
:10099000482B4115510561057105A1F040585340A0
:1009A0006109710997E1440F551F661F771F9A95DA
:1009B000D1F7402B512B622B732B4D935D936D938D
:1009C0007C9313974781407850E060E070E0742F8B
:1009D0006627552744270D911D912D913C91139722
:1009E000402B512B622B732B4D935D936D937C9316
:1009F000139788E090E01F910F91FF90EF90DF90A8
:100A0000CF90BF90AF909F908F900895EF92FF92FC
:100A10000F931F93CF93DF938C017B01BC016E5F1B
:100A20007F4FC7010E946204EC01B8016A5F7F4FEB
:100A3000C7018C0F9D1F0E946204C80FD91FB80107
:100A4000665F7F4FC7018C0F9D1F0E9462048C0F51
:100A50009D1FDF91CF911F910F91FF90EF9008950F
:100A6000EF92FF920F931F93CF93DF937C01EB01E3
:100A700002960E9406058C01BE01680F791FC7010E
:100A800040960E940605800F911FDF91CF911F9124
:100A90000F91FF90EF9008950F931F93CF93DF93E3
:100AA0008C01EC012696CE010E943005D801949667
:100AB000ED91FC919597CE01DF91CF911F910F9110
:100AC00009948F929F92AF92BF92CF92DF92EF9252
:100AD000FF920F931F93CF93DF93EC01CB01BA01E9
:100AE0008B019C0147E135952795179507954A9508
:100AF000D1F71127222733270115110521053105CB
:100B000021F000581C4F2F4F3F4F188219821A8234
:100B10006B017C0145E0CC0CDD1CEE1CFF1C4A95F2
:100B2000D1F7CB826B017C0153E0F594E794D79425
:100B3000C7945A95D1F7CC826B017C01EBE0F59418
:100B4000E794D794C794EA95D1F7CD8268017901EB
:100B5000F4E0CC0CDD1CEE1CFF1CFA95D1F74B0128
:100B60005C01A3E1B594A79497948794AA95D1F7D3
:100B7000482D4F70C42ACE8268017901B4E0F59403
:100B8000E794D794C794BA95D1F720E030E0A90153
:100B90000E949B1A87FD02C0CF8203C00C2D006803
:100BA0000F8388E090E0DF91CF911F910F91FF902C
:100BB000EF90DF90CF90BF90AF909F908F9008956F
:100BC000EF92FF920F931F93CF93DF937C018B01E2
:100BD000FC014281538164817581C8010E946105D5
:100BE000EC01F7014681578160857185C8018C0F42
:100BF0009D1F0E946105C80FD91FF70142855385CB
:100C000064857585C8018C0F9D1F0E9461058C0F3E
:100C10009D1FDF91CF911F910F91FF90EF9008954D
:100C2000EF92FF920F931F93CF93DF937C01EB0121
:100C300002960E94E0058C01BE01680F791FC70172
:100C400040960E94E005800F911FDF91CF911F9188
:100C50000F91FF90EF9008950F931F93CF93DF9321
:100C6000CDB7DEB72A970FB6F894DEBF0FBECDBF63
:100C70008C0188E491E09A8389831B821C821D8207
:100C80001E821F82188619861A86D801ED91FC9162
:100C90000190F081E02DAE014F5F5F4F6AE070E0A0
:100CA000C80109950E94FA14F8016087718782874C
:100CB00093872A960FB6F894DEBF0FBECDBFDF91A3
:100CC000CF911F910F9108952F923F924F925F9273
:100CD0006F927F928F929F92AF92BF92CF92DF924C
:100CE000EF92FF920F931F93CF93DF93CDB7DEB7B1
:100CF00028970FB6F894DEBF0FBECDBF8C015B0105
:100D0000DB018C9111969C9111971296CC901297C1
:100D1000D12CE12CF12C7601DD24CC24D92AC82A4F
:100D200013968C91F82AF80182819381A481B58170
:100D30008C159D05AE05BF0570F4B601660F771FD3
:100D4000660F771F828593850E94E61CD8011B964B
:100D50009C938E931A97F801C282D382E482F58223
:100D6000D5011796C12CD12C7601F4E08F2E912C51
:100D700098012A5F3F4FF801428153816481758158
:100D8000C4010496C416D506E606F70680F54C9114
:100D900050E060E070E0742F662755274427FD017E
:100DA0003397E0814E2BFD013297E0815E2BFD01F0
:100DB0003197E0816E2BF8014683578360877187F6
:100DC0004C01089742855385840F951FF901408196
:100DD000518162817381FC014083518362837383FB
:100DE000FFEFCF1ADF0AEF0AFF0A1496C4CFF4010F
:100DF000EA0DFB1D20813181C280D12CE12CF12C28
:100E00007601DD24CC24D32AC22A2381F22A4C0184
:100E1000F80184859585A685B7858C159D05AE0559
:100E2000BF0570F4B601660F771F660F771F8489C0
:100E300095890E94E61CD80155969C938E935497F1
:100E4000F801C486D586E686F78620E030E0C12C1E
:100E5000D12C7601D8015096F801448555856685D8
:100E60007785F501E80DF91DC4010496C416D50671
:100E7000E606F70648F59180428150E060E070E0B8
:100E8000BA0155274427592990804929E3817E2BAF
:100E9000F801408B518B628B738B4C01848995894F
:100EA000FC01E20FF31F4D915D916D917C911397C1
:100EB0004083518362837383FFEFCF1ADF0AEF0A07
:100EC000FF0A2C5F3F4FC8CF20813181C280D12CD7
:100ED000E12CF12C7601DD24CC24D32AC22A2381F3
:100EE000F22A4C01F80186899789A08DB18D8C1565
:100EF0009D05AE05BF0560F4B601660F771F848DB2
:100F0000958D0E94E61CD8015D969C938E935C970C
:100F1000F801C68AD78AE08EF18E412C512C32011D
:100F20001801FAE12F0E311CF80186899789A08DEE
:100F3000B18D481659066A067B0608F05AC0B501FD
:100F4000680D791DCE0101960E94D20194012C5F9B
:100F50003F4FC980DA80EB80FC80C901032E000C72
:100F6000AA0BBB0BAC01BD014C0D5D1D6E1D7F1DA1
:100F70004D835E836F837887F501E20FF31FAF0126
:100F80004A195B09CA01A0E0B0E04D815E816F8122
:100F9000788584179507A607B70728F44191DF01E4
:100FA00012974C93ECCFC9018C0D9D1DF501E80FF4
:100FB000F91F31971082215031092A0D3B1DD801AC
:100FC0005B963C932E935A974C01C201880F991F50
:100FD0005C96ED91FC915D97E80FF91FD1018D9121
:100FE0009C9191838083BFEF4B1A5B0A6B0A7B0A4B
:100FF0009BCFC40128960FB6F894DEBF0FBECDBFBD
:10100000DF91CF911F910F91FF90EF90DF90CF90E4
:10101000BF90AF909F908F907F906F905F904F9018
:101020003F902F9008952F923F924F925F926F9230
:101030007F928F929F92AF92BF92CF92DF92EF9268
:10104000FF920F931F93CF93DF93CDB7DEB7A8978F
:101050000FB6F894DEBF0FBECDBF8C010E94FA140C
:101060002B013C01980125573B4F3C8B2B8BF90101
:1010700080819181A281B381A3019201281B390B48
:101080004A0B5B0BDA01C901893F9A42A105B10500
:1010900010F035971082780144E8E41A4BEFF40A17
:1010A000D7018D919C91892B79F0F801E157FB4F85
:1010B00080819181A281B38184159505A605B7052C
:1010C00018F4F7011182108298012C573B4F388B8E
:1010D0002F87A80140585B4F5A8B498BC80148960F
:1010E0009E8B8D8BD801AA57BB4FBA8FA98FF80161
:1010F000EC56FB4FF8A3EF8F215F3F4F3AA329A394
:10110000180132E8231A3BEF330A4E5F5F4F588FC6
:101110004F8B89589B4F9CA38BA3A30192012C5EFC
:101120003F4F4F4F5F4F2DA33EA34FA358A7F8014A
:1011300084899589A689B789892B8A2B8B2B81F481
:10114000D80112968D919C911397DC01ED91FC9141
:101150000284F385E02D09959C0197FF14C08AC293
:101160000E94FA14DC01CB0184199509A609B7097C
:10117000F80184889588A688B78888169906AA06F3
:10118000BB06F0F69EC2AF85B8898D919C911197F0
:10119000820F931F8D939C93F701408151814730BB
:1011A0005105D1F4AF89B88D8D919C911197AC0107
:1011B0004F5F5F4F4D935C93F801E80FF91F208F4D
:1011C000F10180819181019791838083892B09F0BE
:1011D000AECF88E090E032C04115510539F52F3F80
:1011E000310589F481E090E0F701918380832DA19E
:1011F0003EA14FA158A5ABA1BCA12D933D934D930A
:101200005C93139794CF0E94FA14DC01CB018419EC
:101210009509A609B70989389341A105B10508F4D4
:1012200086CFF801EA57FB4F10824BC2413051057F
:10123000A9F42E3F310531F482E090E0D7018D937F
:101240009C9375CFF70111821082A98DBA8D8C9174
:1012500081116DCFC8010E942C0669CF4230510523
:1012600089F4F10131832083AF89B88D1D921C92DE
:1012700083E090E0F70191838083AF85B8892D9357
:101280003C9355CF4330510561F4322F2227F101B1
:1012900080819181280F391F3183208384E090E081
:1012A000CDCF4430510581F460E071E00E947C1C98
:1012B0008F3F910531F485E090E0F70191838083C1
:1012C00036CF1182108233CF4530510571F4E98950
:1012D000FA893183208386E090E0D7018D939C9337
:1012E000EF85F8893183208322CF46305105A1F460
:1012F000322F2227A989BA898D919C911197280FA5
:10130000391F2D933C9387E090E0F7019183808310
:10131000D1018D919C915ACF4830510509F007CFEA
:10132000F7011182108260E071E00E947C1C8F3F07
:10133000910509F0FCCEA989BA898D919C910097FD
:1013400009F0C7C0C8010E942C068CE391E09A8383
:1013500089831C821B8288E292E09E838D8398871A
:101360008F839A8789871B861C861D861E86580157
:10137000B8EEAB1ABBEFBB0A6801E6EBCE1AEBEF97
:10138000DE0AD501ED91FC913097D9F184819581E8
:101390009C838B83808191819E838D8382819381C5
:1013A000DC01ED91FC910480F581E02D0995988791
:1013B0008F83D501ED91FC9182819381DC01ED91C8
:1013C000FC910680F781E02D09959A87898720E0B6
:1013D00032E040E050E02B873C874D875E87D801A4
:1013E0008D919C91F501A081B18118966D917C91B0
:1013F0001997DC01ED91FC91AE014F5F5F4FC80181
:101400000995B2E0AB0EB11CAC14BD0409F0B9CF24
:10141000812C92E0992EA12CB12CF601A081B181F2
:101420001097E1F112968D919C9113979C838B8379
:1014300014968D919C9115979E838D83ED91FC91CF
:1014400011970480F581E02DCD01099598878F8350
:10145000D6018D919C91DC01ED91FC910680F78184
:10146000E02D09959A8789878B869C86AD86BE86F6
:10147000D801ED91FC9120803180F601808191812D
:10148000DC01ED91FC910280F381E02D0995AE0124
:101490004F5F5F4FBC01C801F1010995F2E0CF0E2B
:1014A000D11CCE14DF0409F0B8CFF801EA57FB4F86
:1014B00081E0808331964082518262827382AB895F
:1014C000BC894D925D926D927C9213978FEF9FEF46
:1014D000FDC08A30910509F0A2C088E491E09A83AA
:1014E00089831B821C821D821E821F821886198698
:1014F0001A860E94FA14F80180849184A284B3842D
:101500009B01AC01281939094A095B0949015A01B3
:101510006D897E89CE0101960E94F803C501B40150
:1015200028EE33E040E050E00E94901C8B809C80CD
:10153000AD80BE80820E931EA41EB51E8B829C823F
:10154000AD82BE829B01AC0160E472E48FE090E06A
:101550000E946C1C8F809884A984BA84DC01CB0122
:10156000880D991DAA1DBB1D8F839887A987BA87EF
:101570000E94FA148F809884A984BA8436E3931A5F
:1015800035E6A30A34ECB30A28EE33E040E050E03D
:101590000E94901C2B8F3C8F4D8F5E8F9B01AC0166
:1015A00060E472E48FE090E00E946C1CA50194015D
:1015B000261B370B480B590BCA01B9018B809C8045
:1015C000AD80BE8031E0831A9108A108B1082B8D4F
:1015D0003C8D4D8D5E8D821A930AA40AB50A20E0D7
:1015E0003AEC4AE95BE30E94901C820E931EA41E13
:1015F000B51ED8011C968D929D92AD92BC921F97FC
:10160000F801608B718B828B938B0E94FA14AB89EB
:10161000BC896D937D938D939C93139788CD863071
:10162000910559F46D897E898F8D98A10E94640679
:1016300081E0E9A1FAA180837ACD8B30910521F474
:10164000A98DBA8D1C9273CDFC01EF53FE4FEE0FA6
:10165000FF1FE00FF11F80819181009709F467CD92
:10166000DC01ED91FC910190F081E02D6D897E8986
:1016700009955DCDF801EA57FB4F8081882321F160
:101680007801B9E7EB1ABBEFFB0AF7018081918182
:10169000A281B381A3019201281B390B4A0B5B0B7A
:1016A000DA01C901853C9940A105B10568F0C8017E
:1016B0000E942C06D7014D925D926D927C921397F9
:1016C00003C08EEF9FEF02C080E090E0A8960FB6B7
:1016D000F894DEBF0FBECDBFDF91CF911F910F9168
:1016E000FF90EF90DF90CF90BF90AF909F908F9042
:1016F0007F906F905F904F903F902F9008954F9202
:101700005F926F927F92AF92BF92CF92DF92EF92F1
:10171000FF920F931F93CF93DF93EC017B018A819C
:10172000FB0180838B8181838C8182838D81838384
:10173000DB01179640E050E0BA01E4E0F0E04A80B7
:101740005B806C807D808F010C5F1F4F44155505B9
:1017500066057705C0F48A859B85E80FF91F3497E5
:10176000D080218192818381FD013397D08231968F
:101770002083319690838C93F8014F5F5F4F6F4FBA
:101780007F4F1496DCCFEE0DFF1D8C8580838D85F9
:1017900081838E8582838F85838380E090E040E023
:1017A00050E0BA014C845D846E847F84F701E00FC1
:1017B000F11F0C5F1F4F4415550566057705B8F4FA
:1017C000AC89BD89A80FB91FCC901196DC901197F8
:1017D00012963C91129713962C91C082D18232833B
:1017E00023834F5F5F4F6F4F7F4F0496DBCF8E8910
:1017F00080838F898183888D8283898D8383412C27
:10180000512C32018E899F89A88DB98D48165906B1
:101810006A067B0680F55201AA0CBB1CEC8DFD8D7F
:10182000EA0DFB1DA081B181FD0101900020E9F7C7
:1018300031976F01CA1ADB0AA60160E070E0C701A8
:10184000800F911F0E9400020C5F1F4F8C8D9D8D99
:10185000FC01EA0DFB1D60817181A601C701800FAB
:10186000911F0E94B51D0C0D1D1DFFEF4F1A5F0A41
:101870006F0A7F0AC7CFC801DF91CF911F910F91E7
:10188000FF90EF90DF90CF90BF90AF907F906F90E0
:101890005F904F900895EF92FF920F931F93CF9315
:1018A000DF938C017B01EC018A81FB018193AB8189
:1018B000BC81ED0109900020E9F72197CA1BDB0BE1
:1018C000AE0160E070E0CF010E940002F801638188
:1018D0007481AE01C70105960E94B51DCE01059623
:1018E000DF91CF911F910F91FF90EF900895CF92CC
:1018F000DF92EF92FF920F931F93CF93DF936C01D0
:10190000EB01FC018281888383818983A481B58175
:10191000FD0101900020E9F731978F010A1B1B0B95
:10192000A80160E070E0CE0102960E940002F6017C
:1019300064817581A801CE0106960E94B51DC8017B
:101940000696F601A681B781FD0101900020E9F716
:1019500031977F01EA1AFB0AA70160E070E08C0F63
:101960009D1F0E940002065F1F4FF601668177816E
:10197000A701CE01800F911F0E94B51D0E0D1F1DE6
:10198000F601A085B185FD0101900020E9F73197AE
:101990007F01EA1AFB0AA70160E070E0CE01800F28
:1019A000911F0E9400020C5F1F4FF6016085718538
:1019B000A701CE01800F911F0E94B51DC8018E0D99
:1019C0009F1DF6016285438534852585C80FD91F83
:1019D000688349833A832B830496DF91CF911F91CB
:1019E0000F91FF90EF90DF90CF9008951F920F928C
:1019F0000FB60F9211242F933F938F939F93AF9322
:101A0000BF938091450390914603A0914703B09105
:101A100048033091440323E0230F2D3720F401962F
:101A2000A11DB11D05C026E8230F0296A11DB11D01
:101A3000209344038093450390934603A093470368
:101A4000B09348038091490390914A03A0914B03BE
:101A5000B0914C030196A11DB11D80934903909351
:101A60004A03A0934B03B0934C03BF91AF919F9156
:101A70008F913F912F910F900FBE0F901F9018954F
:101A80001F920F920FB60F9211242F933F934F93F3
:101A90005F936F937F938F939F93AF93BF93EF93D6
:101AA000FF93E0910801F09109010995FF91EF91F1
:101AB000BF91AF919F918F917F916F915F914F9166
:101AC0003F912F910F900FBE0F901F9018951F926E
:101AD0000F920FB60F9211242F933F934F935F9362
:101AE0006F937F938F939F93AF93BF93EF93FF93E6
:101AF000E0910601F09107010995FF91EF91BF91E7
:101B0000AF919F918F917F916F915F914F913F9195
:101B10002F910F900FBE0F901F9018951F920F924C
:101B20000FB60F9211242F933F934F935F936F93B0
:101B30007F938F939F93AF93BF93EF93FF93E09126
:101B40000401F09105010995FF91EF91BF91AF91CB
:101B50009F918F917F916F915F914F913F912F91C5
:101B60000F900FBE0F901F9018951F920F920FB6F7
:101B70000F9211242F933F934F935F936F937F9313
:101B80008F939F93AF93BF93EF93FF93E0910201E5
:101B9000F09103010995FF91EF91BF91AF919F9152
:101BA0008F917F916F915F914F913F912F910F9006
:101BB0000FBE0F901F9018951F920F920FB60F92A5
:101BC00011242F933F934F935F936F937F938F9342
:101BD0009F93AF93BF93EF93FF93E0910001F09138
:101BE00001010995FF91EF91BF91AF919F918F9165
:101BF0007F916F915F914F913F912F910F900FBE09
:101C00000F901F901895DC01ED91FD918081ED9171
:101C1000FD919081ED91FD916C9163708E2309F09F
:101C200064609F2309F06860E0E2FEE0E60FF11DCA
:101C3000659565956D936D917D918D919D910994BB
:101C400023C01AC012C016C010C01EC009C014C0E4
:101C500013C006C019C009C00DC007C00DC014C014
:101C600062507040804090400BC061507040804096
:101C7000904006C06E5F01C06F5F7F4F8F4F9F4FD8
:101C80009E938E937E936E930895809142039091DC
:101C900043030C94030E80914003909141030C94F4
:101CA000030E80913E0390913F030C94030E8091AC
:101CB0003C0390913D030C94030E0F931F93CF931D
:101CC000DF93EC01062F142F62E0802F0E94671330
:101CD00062E0812F0E946713802F90E0FC01EE5E8E
:101CE000FE4FE491F0E0EE0FFF1FE851FF4FA5918A
:101CF000B491B983A883FC01EF5CFE4F84918C837F
:101D0000212F30E0F901EE5EFE4F9491E92FF0E0D3
:101D1000EE0FFF1FE851FF4F459154915B834A83BB
:101D2000F901EF5CFE4FE491ED831F82188619865E
:101D30001A86EBE3FFE13197F1F7EC91E82381E0BC
:101D400009F480E0FA0120819D81922309F08260EC
:101D50008E83BE01802F0E9439028B87BE01812FA6
:101D60000E9439022B8590E0820F911D8B87DF91B5
:101D7000CF911F910F91089540914F0350915003BF
:101D800020914D0330914E0342175307B4F49091C4
:101D9000E8009570E1F39091E80092FD19C08093FE
:101DA000F10080914F039091500301968F73992712
:101DB000892B19F48EEF8093E80080914F03909166
:101DC000500301969093500380934F0381E0089550
:101DD00080E00895CF92DF92EF92FF920F931F93CE
:101DE000CF93DF931F92CDB7DEB7182F062FE42EC7
:101DF000862F880F8E5F99830E94BC0E83E00E941D
:101E0000BC0EF12EC12E9981D92E8C2D8F198017E1
:101E100098F4F601E7FE02C0849101C080810E941F
:101E2000BC0E182F80E00E94BC0E8123FFEFCF1A5A
:101E3000DF0A8111EACF01C081E00F90DF91CF91DD
:101E40001F910F91FF90EF90DF90CF900895DF9258
:101E5000EF92FF920F931F93CF93DF93D82E8A01B7
:101E60007B01E40EF51EEB01CE15DF0571F0D7FE08
:101E700003C0FE01849101C088810E94BC0E21969E
:101E80008111F2CF8FEF9FEF01C0C801DF91CF9199
:101E90001F910F91FF90EF90DF900895615030F007
:101EA0002091F100FC0120830196F8CF289884E668
:101EB00080935D030895CF92DF92EF92FF920F938C
:101EC0001F93CF93DF936C017A018B01C0E0D0E0C8
:101ED000CE15DF0589F0D8016D918D01D601ED9108
:101EE000FC910190F081E02DC6010995892B11F438
:101EF0007E0102C02196ECCFC701DF91CF911F91E7
:101F00000F91FF90EF90DF90CF900895CF93DF93E4
:101F10001F92CDB7DEB76983DC01ED91FC910280A1
:101F2000F381E02D41E050E0BE016F5F7F4F0995E6
:101F30000F90DF91CF91089583E08093E900809125
:101F4000F200882319F08AE38093E8000895FC01E9
:101F50008485958597FD0BC09FB7F89482E08093A8
:101F6000E9008091F2009FBF90E0019608959FB72D
:101F7000F89482E08093E9008091F2009FBF90E0A6
:101F80000895089580E090E008953FB7F894809117
:101F9000490390914A03A0914B03B0914C0326B59D
:101FA000A89B05C02F3F19F00196A11DB11D3FBF91
:101FB000BA2FA92F982F8827820F911DA11DB11D1F
:101FC000BC01CD0142E0660F771F881F991F4A951B
:101FD000D1F708950F931F93CF93DF931F92CDB73F
:101FE000DEB782E0898342E450E06FE671E080E88A
:101FF0000E94270F0E944315DC0112960D911C913F
:1020000013970115110569F0D801ED91FC9102803B
:10201000F381E02DBE016F5F7F4FC801099597FFE7
:1020200007C089810F90DF91CF911F910F91089583
:10203000F80100851185E5CF0E94321590E00895E2
:102040000F931F93CF93DF931F92CDB7DEB78C0111
:10205000FC018485958597FF0EC0CE0101960E94F4
:102060000815019719F4298130E002C02FEF3FEFE6
:10207000F80135872487F801848595850F90DF91D5
:10208000CF911F910F910895CF93DF931F92CDB7FA
:10209000DEB7FC018485958597FD05C02FEF3FEFE6
:1020A000358724870BC0CE0101960E940815019741
:1020B00019F4898190E002C08FEF9FEF0F90DF91BC
:1020C000CF9108951F920F920FB60F9211248F9304
:1020D0009F938091E1009091E100937F9093E100C4
:1020E00083FF0FC01092E90091E09093EB001092F3
:1020F000EC0092E39093ED0010925E0398E09093D1
:10210000F00082FF20C093E09093E9009091F200EC
:10211000992319F09AE39093E80090915103992341
:1021200039F090915103915090935103992389F183
:1021300090915D03992339F090915D0391509093B4
:102140005D03992341F184FF10C08091E2008E7EEF
:1021500081608093E2008091E1008F7E8093E100B6
:10216000809153038E7E806111C080FF16C08091E4
:10217000E2008E7E80618093E2008091E1008E7E9D
:102180008093E100809153038E7E8160809353039E
:1021900004C05D9ACDCF289AD6CF9F918F910F9092
:1021A0000FBE0F901F9018951F920F920FB60F92AF
:1021B0001124CF92DF92EF92FF920F931F932F93F0
:1021C0003F934F935F936F937F938F939F93AF93BF
:1021D000BF93EF93FF93CF93DF93CDB7DEB76C97A9
:1021E000DEBFCDBF1092E9008091E80083FFEDC112
:1021F00068E0CE0145960E944E0F82EF8093E80082
:102200008D8987FF05C09091E80090FFFCCF03C047
:102210009EEF9093E800982F907609F0C6C09E89B3
:102220002F89188D91110CC0803829F480915403A6
:102230008093F10002C01092F1001092F10048C1A9
:10224000422F50E0512B913051F4811141C1413066
:10225000510509F03DC1809154038D7F0BC093302F
:1022600061F4811135C14130510509F031C18091CE
:1022700054038260809354032BC1953041F48091C4
:10228000E80080FFFCCF20682093E30021C1963056
:1022900009F05FC0EB8CFC8C1092E90010925003A7
:1022A00010924F03123091F510924E0310924D038D
:1022B0000E94EA0F99E0BE016F5F7F4FDB01E92FBB
:1022C0001D92EA95E9F799831A8391E09E8390EA3B
:1022D00098879AEF998720914F0330915003275F99
:1022E0003F4F3C832B838D831092E9001092500363
:1022F00010924F03F0924E03E0924D0349E050E0FC
:1023000080E00E94270F0E94EA0FE2C0F0924E0385
:10231000E0924D030E944315DC011296ED90FC9073
:102320001397E114F10409F4C0C0D701ED91FC91B9
:102330000480F581E02DBE016B5E7F4FC7010995DA
:10234000009719F00CF0C4C0C7C0F701E084F18415
:10235000E8CF973009F4C0C0983021F481E0809331
:10236000F100B6C0993009F0B3C0837009F0B4C071
:10237000EDE5F1E081E021E036E39081992361F021
:102380008093E9002093EB0091919093EC003093BF
:10239000ED008F5F873089F78EE78093EA00109217
:1023A000EA008F8980935E0393C08B8D9C8D109281
:1023B000E9001092500310924F0390934E038093C4
:1023C0004D03898D811156C08E899D89913A59F4AA
:1023D000813209F081C047E050E06EE071E080E0BA
:1023E0000E94270F75C0913209F076C0833289F4BC
:1023F000888D90E0982F88272F89822BA0E0B0E06D
:1024000080930A0190930B01A0930C01B0930D01EE
:102410005FC0803269F48091E80082FFFCCF67E002
:102420008EE091E00E944E0F8BEF8093E80006C093
:10243000823209F04DC08F8980931501809152033B
:10244000882319F0EEEFFAE002C0E0E0F8E08091B6
:102450000E0190910F01A0911001B0911101803BEC
:102460009440A105B10509F07BC08091150180FF62
:1024700093C076C00E944315DC0112960D911C9109
:1024800013970115110541F1D801ED91FC910190CF
:10249000F081E02DBE016B5E7F4FC801099581116F
:1024A00017C0F80100851185ECCF113009F44EC03A
:1024B000133091F48F89882309F445C0823081F468
:1024C00040E860E183ED91E00E94EA0E882321F06C
:1024D0008EEF8093E80079C081E28093EB0075C0B5
:1024E000813029F440E86BE087EC91E0EDCF833058
:1024F00099F70E944315DC011296ED90FC9013971A
:102500008E010F5F1F4F6801E114F10479F0D701CC
:10251000ED91FC910680F781E02DB801C701099586
:10252000080F111DF701E084F184EECFD8011C9251
:10253000F60101900020E9F73197BF016C197D0980
:1025400040E0C601C1CF61EB71E002C065EB71E014
:102550006115710509F2FB01449150E080E840CF1C
:102560000FB6F894A8958091600088618093600010
:10257000109260000FBEA895EE3F2AE0F20739F0F6
:102580008091FE0A9091FF0A91838083A1CF1092DF
:10259000FF0A1092FE0A9CCFEE3F8AE0F80731F066
:1025A000808191819093FF0A8093FE0A87E797E7E5
:1025B000918380839BE088E10FB6F894A89580937F
:1025C00060000FBE9093600083CF6C960FB6F894B6
:1025D000DEBF0FBECDBFDF91CF91FF91EF91BF91D5
:1025E000AF919F918F917F916F915F914F913F91AB
:1025F0002F911F910F91FF90EF90DF90CF900F9050
:102600000FBE0F901F901895362F90E0FC01E05BF5
:10261000FE4F4491FC01EF5CFE4F2491FC01EE5E05
:10262000FE4F8491882309F451C04423E1F150E026
:10263000FA013197EF30F105B0F5EA5AFF4F0C94EB
:10264000B21C909180009F7707C0909180009F7D81
:1026500003C090918000977F9093800024C094B530
:102660009F7702C094B59F7D94BD1DC0909190004E
:102670009F7707C0909190009F7D03C0909190003C
:10268000977F909390000FC09091C0009F7703C0F8
:102690009091C0009F7D9093C00005C09091C200B2
:1026A000977F9093C200E82FF0E0EE0FFF1FEC5FE2
:1026B000FE4FA591B4918FB7F894EC91311103C0FE
:1026C00020952E2301C02E2B2C938FBF0895CF93DE
:1026D000DF9390E0FC01EF5CFE4F2491FC01EE5E85
:1026E000FE4F8491882361F190E0880F991FFC01CF
:1026F000EA50FF4FC591D491FC01EC5FFE4FA591CC
:10270000B491611109C09FB7F89488812095822304
:102710008883EC912E230BC0623061F49FB7F8944C
:102720003881822F809583238883EC912E2B2C93E4
:102730009FBF06C08FB7F894E8812E2B28838FBFE8
:10274000DF91CF9108951F93CF93DF93182FEB0163
:1027500061E00E946713209711F460E004C0CF3F4E
:10276000D10539F461E0812FDF91CF911F910C9455
:102770000413E12FF0E0E05BFE4FE4914E2F50E0B8
:10278000FA013197EF30F10508F06CC0EB59FF4FBB
:102790000C94B21C84B5806884BDC7BD68C084B584
:1027A000806284BDC8BD63C08091800080688093D2
:1027B0008000D0938900C093880059C08091800028
:1027C000806280938000D0938B00C0938A004FC0BA
:1027D00080918000886080938000D0938D00C093AA
:1027E0008C0045C080919000806880939000D093C9
:1027F0009900C09398003BC08091900080628093C4
:102800009000D0939B00C0939A0031C080919000BB
:10281000886080939000D0939D00C0939C0027C057
:102820008091C00080688093C0008091C0008F7B41
:102830008093C000C093CF001AC08091C000806216
:102840008093C000C093D00012C08091C200886005
:102850008093C2008091C2008B7F8093C200C0939E
:10286000D20005C0C038D1050CF07CCF76CFDF9107
:10287000CF911F9108958F929F92AF92BF92CF9266
:10288000DF92EF92FF926B017C010E94C50F4B011A
:102890005C01C114D104E104F104F1F00E94C50F00
:1028A000DC01CB0188199909AA09BB09883E93402C
:1028B000A105B10570F321E0C21AD108E108F108C1
:1028C00088EE880E83E0981EA11CB11CC114D104AF
:1028D000E104F10419F7DDCFFF90EF90DF90CF9086
:1028E000BF90AF909F908F9008958F929F92AF92DC
:1028F000BF92CF92DF92EF92FF920F931F93CF93ED
:10290000DF935C016B017A0180911501882309F442
:102910005BC080915E03882309F456C08091530305
:1029200080FF05C08091E00082608093E000E701B5
:1029300010E00AEF83E0882E9AE3992E2097D9F1D0
:102940000E94321581110AC0015009F43DC061E0B6
:1029500070E080E090E00E943B14F0CF282F30E040
:10296000C217D3070CF48C2F4FB7F8948092E9006C
:102970009091E80095FF1DC0282F30E0C21BD30BBB
:10298000F601982F915020F081918093F100FACFB9
:10299000C20ED31E112319F09092E80009C0809155
:1029A000E80085FD06C09092E80011E0209709F04C
:1029B00010E04FBFC3CF1111C3CF5D9884E6809361
:1029C00051031E141F0444F081E090E0F50193834D
:1029D000828380E090E001C0C701DF91CF911F9119
:1029E0000F91FF90EF90DF90CF90BF90AF909F90AE
:1029F0008F9008952FB7F894609145037091460326
:102A000080914703909148032FBF08950E94B01D05
:102A1000FC0180915E03811103C08FEF9FEF089549
:102A20009FB7F89482E08093E9002091F20030E0B3
:102A30001216130614F421E030E02115310559F087
:102A4000289884E680935D038091F10080838091D3
:102A5000F200882319F09FBFC90108958BE6809387
:102A6000E800F9CF2FB7F89483E08093E9009091C4
:102A7000E800892F807295FF04C09091F20080E4F5
:102A8000891B2FBF08958091750381110DC082E0CD
:102A90008093710384E08093720310927403109208
:102AA000730381E08093750381E793E008951092AA
:102AB000800310927F0388EE93E0A0E0B0E0809363
:102AC000810390938203A0938303B093840387E6EA
:102AD00091E090937E0380937D038FEF9FEF90931F
:102AE0008A038093890341E060E083E099E00E94DB
:102AF0005D0E43E062E087EF98E00E945D0E89EA98
:102B000091E090934604809345048DE793E0909381
:102B100048048093470480E091EEA0E0B0E0809309
:102B2000490490934A04A0934B04B0934C04109230
:102B3000CB0881E991E09093DA088093D90810924C
:102B4000DB081092DC081092DD081092DE0810926B
:102B5000E4081092E3081092E5081092E60810923B
:102B6000E7081092E8081092EE081092ED08109213
:102B7000EF081092F0081092F1081092F2081092EB
:102B8000F6081092F508EDE5F8E01192119288E050
:102B9000EF38F807D1F7EFE8F8E01192119288E0EA
:102BA000E13CF807D1F7EDE5F4E0119286E0ED3570
:102BB000F807D9F7EDE5F6E0119288E0ED35F80772
:102BC000D9F71092590410925A0410925B04109293
:102BD0005C0425E831E0309328042093270489E73A
:102BE00091E090932A048093290410922B04109270
:102BF0002C0410922D0410922E0410922F04109287
:102C00003004109231041092320410923304109266
:102C10003404109235041092360490933804809353
:102C200037041092390410923A0410923B04109227
:102C30003C0410923D0410923E0410923F04109206
:102C400040041092410410924204109243041092E6
:102C500044044EE153E050931E0440931D0447E2A8
:102C600054E05093200440931F04109226041092C5
:102C70002504309300042093FF0390930204809373
:102C8000010410920304109204041092050410929F
:102C9000060410920704109208041092090410927E
:102CA0000A0410920B0410920C0410920D0410925E
:102CB0000E049093100480930F041092110410924C
:102CC000120410921304109214041092150410921E
:102CD00016041092170410921804109219041092FE
:102CE0001A0410921B0410921C0446E253E0509305
:102CF000F6034093F5034FEF53E05093F8034093EE
:102D0000F7031092FE031092FD0343EB51E0509342
:102D1000CE034093CD033093D4032093D3039093F9
:102D2000D6038093D5031092D7031092D803109244
:102D3000D9031092DA031092DB031092DC03109295
:102D4000DD031092DE031092DF031092E003109275
:102D5000E1031092E2039093E4038093E303109263
:102D6000E5031092E6031092E7031092E803109235
:102D7000E9031092EA031092EB031092EC03109215
:102D8000ED031092EE031092EF031092F0038DE129
:102D900092E09093F2038093F10381E090E09093AE
:102DA000F4038093F30380E393E09093D203809342
:102DB000D1030895789484B5826084BD84B5816020
:102DC00084BD85B5826085BD85B5816085BD8091F6
:102DD0006E00816080936E0010928100809181006E
:102DE0008260809381008091810081608093810066
:102DF000809180008160809380008091910082604A
:102E000080939100809191008160809391008091E6
:102E100090008160809390008091C10084608093D5
:102E2000C1008091C10082608093C1008091C10087
:102E300081608093C1008091C30081608093C30052
:102E40008091C00082608093C0008091C200816048
:102E50008093C20080917A00846080937A00809190
:102E60007A00826080937A0080917A0081608093FA
:102E70007A0080917A00806880937A0010925E03D5
:102E800010925403109253038091D7008160809375
:102E9000D70080EA8093D80089B5806189BD89B563
:102EA000826089BD09B400FEFDCF61E070E080E082
:102EB00090E00E943B148091D8008F7C80618093C9
:102EC000D8008091E000807F8093E0008091E10055
:102ED0008E7E8093E1008DE08093E200559A209AE7
:102EE000EEEFFFE7859194918B3F9C4D19F481E0C3
:102EF0008093520361E087E00E94671361E086E0FF
:102F00000E94671361E084E00E94671361E085E03E
:102F10000E94671360E082E00E94671360E083E034
:102F20000E94671360E080E00E94671360E081E028
:102F30000E9467130E94FA1460935F03709360030A
:102F4000809361039093620368EB7BE080E090E004
:102F50000E943B14E0914704F09148048FEF9FEFEB
:102F6000958784871092C2081092C1081092C408F5
:102F70001092C3081092C8081092C7081092C60891
:102F80001092C508ADE5B8E0FD0180E090E0219128
:102F90003191232BB1F4FC01EE0FFF1FE35AF74FE1
:102FA0002DE134E03183208383589F4F9093220496
:102FB0008093210485E494E0909324048093230477
:102FC00004C001968931910511F780E090E02D91C0
:102FD0003D91232BB1F4FC01EE0FFF1FE35AF74F95
:102FE00025EF33E03183208383589F4F9093FA037A
:102FF0008093F90385E494E09093FC038093FB03B2
:1030000004C001968931910511F7EFE8F8E080E0FE
:1030100090E021913191232BC1F4FC01EE0FFF1FB1
:10302000E157F74F2DEC33E0318320838C599F4FCC
:103030009093D0038093CF0380E0282E80E0382E39
:10304000C1E0D0E00FEF1FEFAFC1019689319105CC
:1030500001F7F2CFF89440900A0950900B09609064
:103060000C0970900D09789480910209823008F063
:10307000AAC1F89487EF98E00E94030E8090FE08A2
:103080009090FF08A0900009B09001097894F894FE
:1030900010920A0910920B0910920C0910920D0956
:1030A0007894F8941092FE081092FF08109200098C
:1030B0001092010978940E94FA14C0905F03D09096
:1030C0006003E0906103F090620360935F0370938C
:1030D0006003809361039093620320916F033091AA
:1030E0007003243031050CF470C16C197D098E0910
:1030F0009F090E944A1B6B017C01C301B2010E941F
:103100004A1B23EC35EF48E450E40E94FF1B24E007
:1031100036E54EE85DE30E94FF1B20E030E046EB21
:1031200054E40E94A01AA70196010E94A01A20E070
:1031300030E04AE754E40E94FF1B60932B04709335
:103140002C0480932D0490932E04C501B4010E9499
:103150004A1B23EC35EF48E450E40E94FF1B24E0B7
:1031600036E54EE85DE30E94FF1B20E030E046EBD1
:1031700054E40E94A01AA70196010E94A01A20E020
:1031800030E04AE754E40E94FF1B60932F047093E1
:103190003004809331049093320480916B039091BA
:1031A0006C03A0916D03B0916E0380930304909320
:1031B0000404A0930504B0930604809167039091E2
:1031C0006803A0916903B0916A0380930704909308
:1031D0000804A0930904B0930A048091FB03909122
:1031E000FC03DC01ED91FC916091F9037091FA030D
:1031F0000190F081E02D4FEF53E009958091230479
:1032000090912404DC01ED91FC9160912104709176
:1032100022040190F081E02D47E254E009952091CD
:10322000590330915A0340915B0350915C036091C4
:103230006B0370916C0380916D0390916E030E94FB
:103240002F1A4B015C0160936B0370936C038093A6
:103250006D0390936E032091550330915603409176
:1032600057035091580360916703709168038091F0
:10327000690390916A030E942F1A6B017C0160938D
:103280006703709368038093690390936A0320E057
:1032900030E0A901C501B4010E949B1A87FF9CC0C0
:1032A00060E084E00E9404131093660300936503BA
:1032B00020E030E04FE753E4C501B4010E94FA1B5F
:1032C00018160CF09BC080E090E0AFE7B3E4809369
:1032D0006B0390936C03A0936D03B0936E0320E097
:1032E00030E0A901C701B6010E949B1A87FF95C073
:1032F00060E087E00E94041310936403009363036B
:1033000020E030E04FE753E4C701B6010E94FA1B0A
:1033100018160CF094C080E090E0AFE7B3E480931F
:10332000670390936803A0936903B0936A03609165
:10333000650370916603072E000C880B990B0E94A1
:103340004A1B20916B0330916C0340916D035091A7
:103350006E030E94FF1B0E94121B85E00E94A313B4
:103360006091630370916403072E000C880B990B26
:103370000E944A1B209167033091680340916903C2
:1033800050916A030E94FF1B0E94121B86E00E945C
:10339000A31364E670E080E090E00E943B142114E7
:1033A000310411F00E94000085E494E00E941308AB
:1033B00080910E09823008F04DCEF89483E099E0B8
:1033C0000E94030E48CEF89459CEC90101969093FD
:1033D000700380936F0323CF20E030E0A901C50183
:1033E000B4010E94FA1B87FD63CF61E084E00E9474
:1033F0000413D0936603C09365035ACF20E030E0F6
:103400004FE753ECC501B4010E949B1A87FF67CFB9
:1034100080E090E0AFE7B3EC5ACF20E030E0A901C4
:10342000C701B6010E94FA1B87FD6ACF61E087E001
:103430000E940413D0936403C093630361CF20E020
:1034400030E04FE753ECC701B6010E949B1A87FF9B
:103450006ECF80E090E0AFE7B3EC61CF5058BB2770
:10346000AA270E94461A0C94C01B0E94B21B38F077
:103470000E94B91B20F039F49F3F19F426F40C94F4
:10348000AF1B0EF4E095E7FB0C94A91BE92F0E94FB
:10349000D11B58F3BA17620773078407950720F00A
:1034A00079F4A6F50C94F31B0EF4E0950B2EBA2FCD
:1034B000A02D0B01B90190010C01CA01A00111243A
:1034C000FF27591B99F0593F50F4503E68F11A16E6
:1034D000F040A22F232F342F4427585FF3CF469577
:1034E00037952795A795F0405395C9F77EF41F1699
:1034F000BA0B620B730B840BBAF09150A1F0FF0F63
:10350000BB1F661F771F881FC2F70EC0BA0F621F4E
:10351000731F841F48F4879577956795B795F7953E
:103520009E3F08F0B0CF9395880F08F09927EE0FD3
:103530009795879508950E94851B08F481E008956A
:103540000E94B41A0C94C01B0E94B91B58F00E9430
:10355000B21B40F029F45F3F29F00C94A91B5111D4
:103560000C94F41B0C94AF1B0E94D11B68F399239D
:10357000B1F3552391F3951B550BBB27AA2762176F
:103580007307840738F09F5F5F4F220F331F441F7C
:10359000AA1FA9F335D00E2E3AF0E0E832D09150B0
:1035A0005040E695001CCAF72BD0FE2F29D0660F9D
:1035B000771F881FBB1F261737074807AB07B0E8E0
:1035C00009F0BB0B802DBF01FF2793585F4F3AF0E6
:1035D0009E3F510578F00C94A91B0C94F41B5F3F9F
:1035E000E4F3983ED4F3869577956795B795F7956C
:1035F0009F5FC9F7880F911D9695879597F9089554
:10360000E1E0660F771F881FBB1F621773078407EF
:10361000BA0720F0621B730B840BBA0BEE1F88F7FE
:10362000E09508950E94191B6894B1110C94F41B45
:1036300008950E94D91B88F09F5798F0B92F9927B9
:10364000B751B0F0E1F0660F771F881F991F1AF08D
:10365000BA95C9F714C0B13091F00E94F31BB1E0E4
:1036600008950C94F31B672F782F8827B85F39F0E3
:10367000B93FCCF3869577956795B395D9F73EF426
:1036800090958095709561957F4F8F4F9F4F0895CE
:10369000E89409C097FB3EF49095809570956195EC
:1036A0007F4F8F4F9F4F9923A9F0F92F96E9BB27A2
:1036B0009395F695879577956795B795F111F8CF1E
:1036C000FAF4BB0F11F460FF1BC06F5F7F4F8F4F89
:1036D0009F4F16C0882311F096E911C0772321F07F
:1036E0009EE8872F762F05C0662371F096E8862F17
:1036F00070E060E02AF09A95660F771F881FDAF76E
:10370000880F9695879597F90895990F0008550F9A
:10371000AA0BE0E8FEEF16161706E807F907C0F057
:1037200012161306E407F50798F0621B730B840B5F
:10373000950B39F40A2661F0232B242B252B21F439
:1037400008950A2609F4A140A6958FEF811D811DD9
:10375000089597F99F6780E870E060E008959FEF13
:1037600080EC089500240A94161617061806090618
:10377000089500240A9412161306140605060895E7
:10378000092E0394000C11F4882352F0BB0F40F46F
:10379000BF2B11F460FF04C06F5F7F4F8F4F9F4FAF
:1037A000089557FD9058440F551F59F05F3F71F031
:1037B0004795880F97FB991F61F09F3F79F0879598
:1037C0000895121613061406551FF2CF4695F1DF21
:1037D00008C0161617061806991FF1CF86957105B1
:1037E000610508940895E894BB2766277727CB01E5
:1037F00097F908950E94851B08F48FEF08950E94A1
:10380000121C0C94C01B0E94B21B38F00E94B91B02
:1038100020F0952311F00C94A91B0C94AF1B1124DC
:103820000C94F41B0E94D11B70F3959FC1F3950F6C
:1038300050E0551F629FF001729FBB27F00DB11D34
:10384000639FAA27F00DB11DAA1F649F6627B00DC4
:10385000A11D661F829F2227B00DA11D621F739FAD
:10386000B00DA11D621F839FA00D611D221F749FBB
:103870003327A00D611D231F849F600D211D822F02
:10388000762F6A2F11249F5750409AF0F1F0882329
:103890004AF0EE0FFF1FBB1F661F771F881F915056
:1038A0005040A9F79E3F510580F00C94A91B0C9441
:1038B000F41B5F3FE4F3983ED4F3869577956795C4
:1038C000B795F795E7959F5FC1F7FE2B880F911D80
:1038D0009695879597F90895DB018F939F930E94A2
:1038E000B81CBF91AF91A29F800D911DA39F900D19
:1038F000B29F900D1124089597FB072E16F40094A3
:1039000007D077FD09D00E94C31C07FC05D03EF408
:10391000909581959F4F0895709561957F4F08957B
:10392000A1E21A2EAA1BBB1BFD010DC0AA1FBB1FC3
:10393000EE1FFF1FA217B307E407F50720F0A21B35
:10394000B30BE40BF50B661F771F881F991F1A94A2
:1039500069F760957095809590959B01AC01BD01CC
:10396000CF010895EE0FFF1F0590F491E02D09940B
:103970000E94D71CA59F900DB49F900DA49F800D11
:10398000911D11240895AA1BBB1B51E107C0AA1F5A
:10399000BB1FA617B70710F0A61BB70B881F991FF0
:1039A0005A95A9F780959095BC01CD010895A29FE5
:1039B000B001B39FC001A39F700D811D1124911D03
:1039C000B29F700D811D1124911D0895A0E0B0E0FB
:1039D000ECEEFCE10C94EF1EEC01009721F4CB011E
:1039E0000E94BE1DB8C0FC01E60FF71F9C012250CB
:1039F0003109E217F30708F4ACC0D9010D911C910D
:103A0000119706171707B0F00530110508F49FC08D
:103A1000C80104978617970708F499C00250110946
:103A2000061B170B019311936D937C93CF010E949A
:103A3000531E8DC05B01A01AB10A4C01800E911E6D
:103A4000A0911109B091120940E050E0E12CF12C55
:103A5000109709F44AC0A815B905D1F56D907C906E
:103A60001197630182E0C80ED11CCA14DB0480F1F7
:103A7000A3014A195B096A0182E0C80ED11C1296A3
:103A8000BC9012971396AC91B5E0CB16D10440F0E0
:103A9000B282A38351834083D9016D937C930AC082
:103AA0000E5F1F4FC301800F911FF9019183808327
:103AB000EB2DFA2FE114F10431F0D7011396FC93AA
:103AC000EE93129744C0F0931209E09311093FC09E
:103AD0008D919C9111974817590708F4AC017D010D
:103AE00012960D90BC91A02DB3CF80910F099091AB
:103AF000100988159905E1F446175707C8F4809115
:103B0000160190911701009741F48DB79EB740912F
:103B10001A0150911B01841B950BE817F907C8F493
:103B2000F0931009E0930F09F901718360830FC0CE
:103B3000CB010E94BE1D7C01009759F0A801BE0177
:103B40000E94B51DCE010E94531EC70104C0CE01C4
:103B500002C080E090E0CDB7DEB7EEE00C940B1F22
:103B600081E090E0F8940C94221FFB01DC0102C07C
:103B700001900D9241505040D8F70895CF93DF93B4
:103B80008230910510F482E090E0E0911109F0910B
:103B9000120920E030E0C0E0D0E0309711F1408120
:103BA000518148175907C0F04817590761F48281BD
:103BB0009381209719F09B838A832BC090931209DD
:103BC0008093110926C02115310519F042175307BA
:103BD00018F49A01BE01DF01EF010280F381E02DAC
:103BE000DCCF2115310509F1281B390B24303105B3
:103BF00090F412968D919C9113976115710521F0A7
:103C0000FB019383828304C090931209809311096E
:103C1000FD01329644C0FD01E20FF31F81939193A1
:103C2000225031092D933C933AC020910F093091D5
:103C30001009232B41F42091180130911901309380
:103C4000100920930F0920911601309117012115B9
:103C5000310541F42DB73EB740911A0150911B0137
:103C6000241B350BE0910F09F0911009E217F307BF
:103C7000A0F42E1B3F0B2817390778F0AC014E5FDC
:103C80005F4F2417350748F04E0F5F1F5093100900
:103C900040930F098193919302C0E0E0F0E0CF01DF
:103CA000DF91CF9108950F931F93CF93DF930097E8
:103CB00009F48CC0FC013297138212820091110921
:103CC000109112090115110581F420813181820FB3
:103CD000931F20910F09309110092817390779F5A2
:103CE000F0931009E0930F0971C0D80140E050E053
:103CF000AE17BF0750F412962D913C911397AD016A
:103D00002115310509F1D901F3CF9D01DA01338382
:103D1000228360817181860F971F8217930769F450
:103D2000EC0128813981260F371F2E5F3F4F3183E9
:103D300020838A819B8193838283452B29F4F0938E
:103D40001209E093110942C01396FC93EE93129767
:103D5000ED01499159919E01240F351FE217F30798
:103D600071F480819181840F951F029611969C9326
:103D70008E938281938113969C938E931297E0E0A9
:103D8000F0E0D80112968D919C911397009719F04D
:103D9000F8018C01F6CF8D919C9198012E5F3F4FD9
:103DA000820F931F20910F093091100928173907AE
:103DB00069F4309729F4109212091092110902C087
:103DC000138212821093100900930F09DF91CF9193
:103DD0001F910F9108952F923F924F925F926F9291
:103DE0007F928F929F92AF92BF92CF92DF92EF928B
:103DF000FF920F931F93CF93DF93CDB7DEB7CA1B0C
:103E0000DB0B0FB6F894DEBF0FBECDBF09942A8836
:103E1000398848885F846E847D848C849B84AA84DE
:103E2000B984C884DF80EE80FD800C811B81AA816B
:103E3000B981CE0FD11D0FB6F894DEBF0FBECDBF36
:083E4000ED010895F894FFCF95
:103E48001D011D011D011D011D01FFFFFFFF00E1F7
:103E5800000000000000000013098000726F7373F7
:103E6800657269616C5F6D7367732F5265717565F3
:103E78007374506172616D0000000000770C0203DA
:103E8800FF02FC02000000003E04F803F503F20301
:103E9800000000004B0CA402A1029E0200C1808118
:103EA80000000000000000860F75141C109C0FA76E
:103EB8000F4410201000000000E00506059502924E
:103EC8000200000000100630058F028C020000007E
:103ED800007F0B64069B029802000000000615068E
:103EE8001506150615000000002D0113081E010017
:103EF8000000004C052901260123013966313935B6
:103F08006638383132343666646661323739386437
:103F180031643365656263613834610067656F6D6C
:103F2800657472795F6D7367732F54776973740062
:103F38004D6573736167652066726F6D2064657681
:103F48006963652064726F707065643A206D65738B
:103F580073616765206C6172676572207468616E51
:103F6800206275666665722E0034613834326236B6
:103F780035663431333038346463326231306662E6
:103F88003438346561376631370067656F6D65743D
:103F980072795F6D7367732F566563746F72330040
:103FA80039663065393862646136353938313938BF
:103FB8003664646635336166613761343065343937
:103FC800003131616264373331633235393333322A
:103FD80036316364363138336264313264363239AB
:103FE8003500726F7373657269616C5F6D736773A7
:103FF8002F4C6F670030616435316638386663343A
:1040080034383932663863313036383430373736F9
:10401800343630303500726F7373657269616C5F66
:104028006D7367732F546F706963496E666F0063B1
:10403800643731363663373463353532633331317B
:1040480066626363326665356137626332383900A8
:104058007374645F6D7367732F54696D6500617263
:10406800645F6F646F006172645F646562756700A6
:0C4078006172645F636D645F76656C00CC
:2070000055C000006EC000006CC000006AC0000068C0000066C0000064C0000062C0000043
:2070200060C000005EC00000F2C400005AC0000058C0000056C0000054C0000052C00000EE
:2070400050C0000078C000004CC000004AC0000048C0000046C0000044C0000042C00000BE
:2070600040C000003EC000003CC000003AC0000038C0000036C0000034C0000032C0000048
:2070800030C000002EC000002CC000002AC0000028C0000026C0000024C0000022C00000A8
:2070A00020C000001EC000001CC0000011241FBECFEFDAE0DEBFCDBF11E0A0E0B1E0E2E3BC
:2070C000FFE702C005900D92A83AB107D9F711E0A8EAB1E001C01D92AE3BB107E1F78FD30B
:2070E00026C78ECFF89410926F0010928100109285001092840081E085BF15BE47985D9AEB
:20710000289A0C94000008952091B2013091B3012F5F3F4F3093B3012093B201932F37FFA6
:2071200003C08EEF831B982F990F921710F447980895479A08951F920F920FB60F9211246E
:207140002F938F939F93EF93FF9310928500109284008091A8019091A901009741F00197D3
:207160009093A9018093A801892B09F45D9A8091AA019091AB01009741F001979093AB0126
:207180008093AA01892B09F4289AE0E0F0E0859194918F5F9F4F49F08091AC019091AD0151
:2071A00001969093AD018093AC01FF91EF919F918F912F910F900FBE0F901F90189584E0BC
:2071C0008093E9000DC08091E8008B778093E80003C08EB3882351F08091E80082FFF9CFBE
:2071E0008091E80085FFEFCF8091F1000895982F83E08093E9008091E80085FD0DC0809136
:20720000E8008E778093E80003C08EB3882369F08091E80080FFF9CF9093F1005D9884E6CB
:2072200090E09093A9018093A80108954F925F926F927F928F929F92AF92BF92CF92DF921E
:20724000EF92FF920F931F93CF93DF9384E08093E9008091E80082FF57C2289884E690E067
:207260009093AB018093AA01AADF182F853481F48CE49DE19093AD018093AC0107B600FC4B
:20728000FDCFF999FECF81E180935700E89503C0843519F494DF8DE00DC28C34E1F38035F9
:2072A000D1F3843721F484E4A2DF80E003C2813611F489E5FFC18134B1F481DF182F7FDFE3
:2072C00090E0880F991FAA2797FDA095BA2F312F330F20E0442737FD4095542F822B932B68
:2072E000A42BB52BB8C1803711F483E5E3C1833549F4C0E0D1E089917ADF21E0C730D20714
:20730000D1F7D9C1863521F481E371DF80E3D2C1833731F487E86BDF85E969DF8EE1CAC149
:207320008536B9F4E0E0F0E093E085E090935700E89507B600FCFDCF80935700E89507B65D
:2073400000FCFDCFE058FF4FA0E7E030FA0771F7A2CF823739F4E1E0F0E089E08093570024
:207360008491A8C1863439F4E0E0F0E089E08093570084919FC18E3439F4E3E0F0E089E0E5
:2073800080935700849196C1813539F4E2E0F0E089E08093570084918DC1823631F489E521
:2073A00026DF80E024DF80E885C1823419F0873609F0E5C01092AD011092AC0100DF082FE8
:2073C000FEDEF82EFCDE682E8554823008F071C1902F80E0CF2DD0E0C82BD92B10926F00B3
:2073E000173609F04BC081E180935700E895DD24CC24C3943FC0E090AE01F090AF010091CC
:20740000B0011091B101B6E46B16D9F4ED2DF0E0EE29FF29E4918E2FEADEDD2081F082E08D
:2074200090E0A0E0B0E0E80EF91E0A1F1B1FE092AE01F092AF010093B0011093B101DC2470
:2074400018C0D801C701B695A7959795879559D5CEDE82E090E0A0E0B0E0E80EF91E0A1FF2
:207460001B1FE092AE01F092AF010093B0011093B1012197209709F0BECF7DC08090AE01F5
:207480009090AF01A090B001B090B10196E4691609F05DC083E0F40180935700E89507B63E
:2074A00000FCFDCF54C0F6E46F1661F5772031F1E090AE01F090AF010091B0011091B1019E
:2074C0007EDED82ECC24852D90E08C299D29F7010C0140925700E895112482E090E0A0E08B
:2074E000B0E0E80EF91E0A1F1B1FE092AE01F092AF010093B0011093B10102C060DE582E1A
:20750000742423C0E090AE01F090AF010091B0011091B10116950795F794E79450DE682FFA
:20752000C701F7D48091AE019091AF01A091B001B091B1010296A11DB11D8093AE01909349
:20754000AF01A093B001B093B101219704C05524772444244394209709F0A5CF96E46916B6
:2075600041F485E0F40180935700E89507B600FCFDCF8DE03CDE82E080936F009CC0833492
:2075800071F40091AE011091AF0119DE90E021E0F8010C0120935700E89511247CCE8336C8
:2075A00019F5E090AE01F090AF010091B0011091B10105DEF701E16090E021E00C0120938C
:2075C0005700E895112482E090E0A0E0B0E0E80EF91E0A1F1B1FE092AE01F092AF0100936A
:2075E000B0011093B10157CE8D3661F4E091AE01F091AF0185E080935700E89507B600FCF2
:20760000FDCF49CE823551F4E091AE01F091AF0105911491812FEBDD802F4CC0843421F5FE
:20762000E090AE01F090AF010091B0011091B10116950795F794E794C2DD682FC70169D4DE
:207640008091AE019091AF01A091B001B091B1010296A11DB11D8093AE019093AF01A093D8
:20766000B001B093B10117CE843609F5E090AE01F090AF010091B0011091B101D801C70142
:20768000B695A795979587953CD4B1DD82E090E0A0E0B0E0E80EF91E0A1F1B1FE092AE010A
:2076A000F092AF010093B0011093B10104C08B3111F08FE39CDD83E08093E9009091E8002B
:2076C0008091E8008E778093E80095FF04C010C08EB38823C9F08091E80080FFF9CF809193
:2076E000E8008E778093E80003C08EB3882361F08091E80080FFF9CF84E08093E9008091F1
:20770000E8008B778093E800DF91CF911F910F91FF90EF90DF90CF90BF90AF909F908F90AC
:207720007F906F905F904F9008959091B601892F8F77813249F58091B7018032A1F081328A
:2077400019F5913A09F58091E800877F8093E8008DE091E067E070E00BD28091E8008B770B
:207760008093E8000895913279F48091E800877F8093E8008DE091E067E070E05DD2809192
:20778000E8008E778093E800089582E061EC42E0B5D083E061E842E1B1D084E060E842E1EF
:2077A000ADC084B7877F84BF88E10FB6F89480936000109260000FBE20E880E090E00FB63F
:2077C000F89420936100809361000FBE81E085BF92E095BF3F9A209A559AE1E6F0E02083A1
:2077E000108247985D9A289A109289008AEF8093880090936F0083E080938100F0C0409116
:20780000000850910108109201081092000894B714BE88E10FB6F8948093600010926000D5
:207820000FBE292F30E0F901E270F07091FD18C090FF05C0859194918F5F9F4F81F423FFFF
:207840000FC08091090190910A014817590741F0E0E0F0E0859194918F5F9F4F09F042DC64
:20786000A0DF78941092AD011092AC010CC0DEDC36D38091AC019091AD0181549F4110F00D
:207880001092140141DC80911401882381F78091E00081608093E00025DC80E090E0089598
:2078A000FA01923049F0933061F09130F9F485E191E022E130E01EC087E291E02EE330E04D
:2078C00019C0882329F485E691E024E030E012C0813029F489E691E022E230E00BC0823006
:2078E00029F48DE891E028E130E004C080E090E020E030E091838083C90108958093E9004E
:207900008091EB0081608093EB001092ED006093EC004093ED008091EE00881F8827881F62
:2079200008958091B60188238CF403C08EB38823B1F08091E80082FFF9CF8091E8008B772A
:207940008093E80008958EB3882349F08091E80080FFF9CF8091E8008E778093E800089594
:20796000EF92FF920F931F9345D04CD008ED10E0F80180818F77808380818068808380819B
:207980008F7D808319BC1EBA1092B40180EEE82EF12CF70180818B7F8083F8018081816052
:2079A000808380E060E042E0A9DFE1EEF0E080818E7F8083E2EEF0E0808181608083808144
:2079C00088608083F70180818E7F8083F8018081806180831F910F91FF90EF900895E7ED06
:2079E000F0E08081816080838AE482BF81E08093B501B6CFE8EDF0E080818E7F808310921C
:207A0000E20008951092DA001092E10008951F920F920FB60F9211242F933F934F935F93F6
:207A20006F937F938F939F93AF93BF93EF93FF938091DA0080FF1BC08091D80080FF17C0B2
:207A40008091DA008E7F8093DA008091D90080FF0BC080E189BD82E189BD09B400FEFDCF36
:207A600081E08EBB3BD203C019BC1EBA37D28091E10080FF17C08091E20080FF13C0809138
:207A8000E2008E7F8093E2008091E20080618093E2008091D80080628093D80019BC85E049
:207AA0008EBB1CD28091E10084FF2CC08091E20084FF28C080E189BD82E189BD09B400FEC5
:207AC000FDCF8091D8008F7D8093D8008091E1008F7E8093E1008091E2008F7E8093E20012
:207AE0008091E20081608093E2008091B401882331F48091E30087FD02C081E001C084E067
:207B00008EBBECD18091E10083FF21C08091E20083FF1DC08091E100877F8093E10082E06A
:207B20008EBB1092B4018091E1008E7F8093E1008091E2008E7F8093E2008091E2008061E9
:207B40008093E20080E060E042E0D8DEC7D1FF91EF91BF91AF919F918F917F916F915F9130
:207B60004F913F912F910F900FBE0F901F9018959C014091BC015091BD014617570718F49D
:207B8000F90190E044C06115710511F0AB01F8CF8091E8008E778093E80040E050E0F0CF0F
:207BA0008EB3882309F444C0853009F443C08091E80083FF02C081E008958091E80082FD70
:207BC00031C08091E80080FF22C08091F3009091F200782F60E0292F30E0262B372B07C07A
:207BE00081918093F100415050402F5F3F4F4115510519F02830310598F390E02830310566
:207C000009F491E08091E8008E778093E8004115510531F6992321F605C08EB3882341F075
:207C2000853041F08091E80082FFF7CF80E0089582E0089583E008959C016115710529F47C
:207C40008091E8008B778093E800F90126C08EB3882391F1853091F18091E80083FF02C06C
:207C600081E008958091E80082FFF1CF06C08091F10081936150704059F02091F300809191
:207C8000F200322F20E090E0822B932B892B79F78091E8008B778093E80061157105B9F601
:207CA00005C08EB3882341F0853041F08091E80080FFF7CF80E0089582E0089583E00895C2
:207CC0000F931F93DF93CF9300D0CDB7DEB7E6EBF1E08091F100819381E0EE3BF807C9F792
:207CE00024DD8091E80083FFE4C08091B6019091B701953009F46DC0963040F4913081F1A7
:207D0000913070F0933009F0D4C02AC0983009F4A3C0993009F4B2C0963009F0CAC07CC023
:207D2000803809F4C6C0823809F0C3C08091BA0187708093E9008091EB001092E9002091DB
:207D4000E800277F2093E80090E025E0969587952A95E1F781708093F1001092F10087C0D8
:207D6000882319F0823009F0A4C08F71823009F0A0C08091B801882331F52091BA01277097
:207D800009F497C02093E9008091EB0080FF1BC0933021F48091EB00806213C08091EB0018
:207DA00080618093EB0081E090E002C0880F991F2A95E2F78093EA001092EA008091EB00E5
:207DC00088608093EB001092E9008091E800877F51C0882309F06DC01091B8011F770FB79B
:207DE000F8948091E800877F8093E8009ADD8091E80080FFFCCF8091E3008078812B809398
:207E0000E30080688093E300112311F482E001C083E08EBB0FBF4DC08058823008F049C033
:207E20008091B8019091B9016091BA01AE014F5F5F4F36DDBC01009709F43BC08091E8008E
:207E4000877F8093E80089819A8192DE8091E8008B778093E8002DC0803859F58091E800AA
:207E6000877F8093E8008091B4018093F1008091E8008E778093E80054DD1BC08823C9F4CA
:207E80009091B8019230A8F48091E800877F8093E8009093B40145DD8091B401882331F420
:207EA0008091E30087FD02C081E001C084E08EBB6CDC8091E80083FF0AC08091EB0080624E
:207EC0008093EB008091E800877F8093E8000F900F90CF91DF911F910F91089508951F9360
:207EE0008EB3882361F01091E9001092E9008091E80083FF01C0E4DE17701093E9001F916F
:207F00000895F999FECF92BD81BDF89A992780B50895262FF999FECF1FBA92BD81BD20BDBD
:207F20000FB6F894FA9AF99A0FBE01960895F894FFCF4341544552494E4100777700080031
:207F40000000000000080112011001020000084123360001000201000109023E00020100FF
:207F600080320904000001020201000524001001042402040524060001070582030800FF0C
:207F800009040100020A000000070504021000010705830210000104030904220341007216
:207FA000006400750069006E006F0020004C0065006F006E006100720064006F0000001836
:1A7FC00003410072006400750069006E006F0020004C004C004300000000D7
:00000001FF
